:020000040800F2
:10000000886B0120CD0300089526000855250008BF
:1000100093260008D32200085D300008000000008D
:1000200000000000000000000000000015030008B0
:10003000D522000800000000690300087D2C00089C
:10004000E7030008E7030008E7030008292A00087F
:10005000E7030008E7030008E7030008E7030008D8
:10006000E7030008E7030008E7030008E7030008C8
:10007000E7030008E7030008E7030008E7030008B8
:10008000E7030008E7030008E7030008E7030008A8
:10009000E7030008E7030008E7030008E703000898
:1000A000E7030008E7030008E7030008E703000888
:1000B000E7030008ED2C0008E7030008E703000849
:1000C000E7030008E7030008E7030008E703000868
:1000D000ED2A0008412E0008752E0008A92E000800
:1000E000E703000899280008E7030008E703000871
:1000F000E7030008E7030008E7030008E703000838
:10010000E7030008E7030008E7030008E703000827
:10011000D92D00080D2E0008E7030008E7030008AA
:10012000E7030008E7030008E7030008E703000807
:10013000E7030008E7030008E7030008E7030008F7
:10014000E7030008E7030008E7030008E7030008E7
:10015000E7030008E7030008E7030008DD2E0008B6
:10016000E7030008E7030008E7030008E7030008C7
:10017000E7030008E7030008E7030008E7030008B7
:10018000E7030008E703000800F002F800F0B2F807
:100190000AA090E8000C82448344AAF10107DA45E2
:1001A00001D100F0A7F8AFF2090EBAE80F0013F082
:1001B000010F18BFFB1A43F0010318477CB9000078
:1001C0009CB900000A444FF0000C10F8013B13F0FA
:1001D000070408BF10F8014B1D1108BF10F8015BA0
:1001E000641E05D010F8016B641E01F8016BF9D193
:1001F00013F0080F1EBF10F8014BAD1C0C1B09D1EA
:100200006D1E58BF01F801CBFAD505E014F8016B5B
:1002100001F8016B6D1EF9D59142D6D370470000ED
:100220000023002400250026103A28BF78C1FBD8FF
:10023000520728BF30C148BF0B6070476E2900F0DD
:100240003085702900F0F98166290BF0E583652976
:100250000BF0E28367290BF0DF8361290BF0DE836B
:1002600003681B0A28BF41F08001692900F06A81F8
:10027000642900F06781752900F064816F2901F01D
:100280003E80782900F0C581E92900F0D987E4296A
:1002900000F0D687F52900F0D387EF2901F03B80E5
:1002A000F82900F0C4810368DB0928BF41F0800110
:1002B000632900F04887732900F04D87E32901F096
:1002C0008382F32901F08882002070471FB50BF06C
:1002D00099FB01F067F80400002000210BF090F872
:1002E000401C6060002000210BF0A0F8E0601FBD02
:1002F00010B510BD01F05AFB1146FFF7E7FF05F0FE
:1003000031FB01F086FB03B4FFF7F2FF03BC02F000
:10031000C5FE00002A4B19680868B0E8F04F80F36A
:100320000988BFF36F8F4FF0000080F3118870478A
:100330000000000006480068006880F3088862B684
:1003400061B6BFF34F8FBFF36F8F00DF00BF00BFF9
:1003500008ED00E0DFF80C00016841F47001016075
:10036000704700BF88ED00E0EFF30980BFF36F8FA7
:10037000134B1A681EF0100F08BF20ED108A20E9F9
:10038000F04F106008B44FF0500080F31188BFF3B5
:100390004F8FBFF36F8F09F0DFFA4FF0000080F34B
:1003A000118808BC19680868B0E8F04F1EF0100FFB
:1003B00008BFB0EC108A80F30988BFF36F8F7047D5
:1003C000F4000020EFF305807047000009488047E3
:1003D00009480047FEE7FEE7FEE7FEE7FEE7FEE727
:1003E000FEE7FEE7FEE7FEE704480549054A064B3F
:1003F00070470000912C000889010008885B0120EB
:10040000886B012088670120886701207047000001
:100410000FB4044910B503AA029800F0A1FE10BC65
:100420005DF814FBBC0000200FB4044910B503AA0A
:10043000029800F095FE10BC5DF814FBBC00002093
:100440000FB41CB5084B06AA7B446946009005987A
:1004500000F04FFE04460020694600F05DFE204695
:100460001CBC5DF814FB0000CD0C00000FB47CB583
:100470000C0009AA009001D02044401E084B7B4488
:1004800069460190089800F034FE05461CB1002032
:10049000694600F041FE28467CBC5DF814FB000074
:1004A000A10C000070B5044685690068C10601D53D
:1004B000302600E02026C00707D070BDD4E9012116
:1004C00030469047206A401C20626D1EF6D570BDF4
:1004D00070B5044685690078C00707D170BDD4E9BE
:1004E000012120209047206A401C20626D1EF6D515
:1004F00070BD70B50C460546012A05D028788006E7
:1005000000D5EA69002302E0012305E05B1C934269
:1005100002D2E05C0028F9D1A869E618C01AA861E7
:10052000286A184428622846FFF7BCFF04E0D5E992
:10053000012114F8010B9047B442F8D32846FFF785
:10054000C7FF70BD2DE9F0410646002410687529EB
:10055000314616A510D000F039FB002802DA4042DF
:1005600013A507E031688A0701D512A502E0490703
:1005700004D511A5012401E000F031FB00210A227D
:1005800006F1240709E0B0FBF2FCB0FBF2F302FB3A
:100590001C00303078541846491C0028F3D12346FB
:1005A0002A463046BDE8F04100F022BB00000000C2
:1005B0002D0000002B00000020000000F0B40D46CC
:1005C0000188090502D5214C7C4402E01F4C7C4483
:1005D0000E34002100F1240608E002F00F07120992
:1005E000E75D42EA03721B097754491C52EA03078C
:1005F000F3D102780023120704D5702D06D009B17B
:10060000022311342246F0BC00F0F2BA0123103468
:10061000F8E770B504460D462146106800F0DFFA91
:10062000024629462046BDE870400023C6E7D21D99
:1006300022F00703D3E90023C0E70368126843F000
:10064000200303600823C3610023B7E76CB40000F4
:100650002DE9F05F894604464FF0000ADFF874B1D7
:10066000FB44C0F820A02046E1688847002874D0E9
:10067000252806D0D4E901219047206A401C206239
:10068000F1E700265F462046E168884720280546B6
:1006900007DB312D05D2781910F8200C08B106437C
:1006A000F1E7B00701D526F00406C4F81CA0002726
:1006B000C4F818A02A2D09D0284602F0E8FC38B367
:1006C00004EB8708303DC8F8185019E059F8041BAE
:1006D000204604EB87029161E1688847012F0546B7
:1006E00018D1E069002820DA26F020061DE0D8F8AD
:1006F000180000EB800005EB40003038C8F8180007
:100700002046E1688847054602F0C1FC0028EED18A
:10071000012F0AD02E2D08D12046E16888477F1C82
:100720000546022F46F02006C4DBA069002803DA44
:10073000404246F00106A061F00701D026F0100605
:100740006C2D0BD0682D09D04C2D39D06A2D35D0A9
:10075000742D35D07A2D33D016E038E0E1682F467D
:1007600020468847B842054609D16C2F26D04FF461
:100770008060E168064320468847054604E06C2F08
:100780001AD04FF4807006430DB3A5F1410019282B
:1007900002D8203546F400664A462946204626609F
:1007A0004E46FFF74BFD80B101280BD0F61D26F019
:1007B000070000F1080956E74020E4E78020D8E769
:1007C0000020D6E706F104094DE7284652E7206AE3
:1007D000BDE8F09FFCB3000070B5064600F0F2F9EA
:1007E0000468054630460A22002100F09FFD2C6077
:1007F00070BD401ECAB210F8011F8A4202D0002903
:10080000F9D10020704730B505460B462A4613F84B
:10081000014B12F8010B08B1A042F8D01CB100281E
:1008200002D06D1CF1E7284630BD40EA01030246C4
:1008300030B59B0710D14FF0013400E008C208C961
:100840001D1B9D4315EAC41FF8D013F0FF0102F8E9
:10085000011B0DD01B0AF8E711F8013B002B02F831
:10086000013B05D011F8013B002B02F8013BF3D10D
:1008700030BD10B5431C02E010F8011B71B18107B7
:10088000FAD14FF0013202C88C1A8C4314EAC2111B
:10089000F9D0C01A0A0603D0C01E10BDC01A10BD80
:1008A0000A0401D0801E10BD0902FCD0401E10BDFC
:1008B00040EA010370B59B072ED14FF00136042AA0
:1008C0002AD308C810C99D1B9D43121F15EAC615DF
:1008D00017D0D8B2E1B2401A50EA056110D198B2EF
:1008E000A1B2401A50EA05410AD123F07F4024F01A
:1008F0007F41401A50EA052102D1180EA0EB146086
:1009000070BDA342DBD018BA21BA884201D90120B8
:1009100070BD4FF0FF3070BD0AB9002070BD10F8F7
:10092000013B11F8014B63B1A3420AD1521E08D01A
:1009300010F8013B11F8014B1BB1A34201D1521E2B
:10094000EDD1181B70BD032A40F2308010F0030C6B
:1009500000F0158011F8013BBCF1020F624498BF12
:1009600011F801CB00F8013B38BF11F8013BA2F1AF
:10097000040298BF00F801CB38BF00F8013B11F02A
:10098000030300F02580083AC0F0088051F8043BCA
:10099000083A51F804CBA0E80810F5E7121D5CBF37
:1009A00051F8043B40F8043BAFF30080D20724BF6A
:1009B00011F8013B11F801CB48BF11F8012B24BFFE
:1009C00000F8013B00F801CB48BF00F8012B70474D
:1009D00010B5203AC0F00B80B1E81850203AA0E8DA
:1009E0001850B1E81850A0E81850BFF4F5AF5FEA0E
:1009F000027C24BFB1E81850A0E8185044BF18C9C1
:100A000018C0BDE810405FEA827C24BF51F8043B67
:100A100040F8043B08BF7047D20728BF31F8023BBB
:100A200048BF11F8012B28BF20F8023B48BF00F84F
:100A3000012B704702F0FF0343EA032242EA02421D
:100A400000F002B84FF000020429C0F0128010F04C
:100A5000030C00F01B80CCF1040CBCF1020F18BF9A
:100A600000F8012BA8BF20F8022BA1EB0C0100F02D
:100A70000DB85FEAC17C24BF00F8012B00F8012B00
:100A800048BF00F8012B70474FF0000200B5134635
:100A900094469646203922BFA0E80C50A0E80C509E
:100AA000B1F12001BFF4F7AF090728BFA0E80C504F
:100AB00048BF0CC05DF804EB890028BF40F8042B48
:100AC00008BF704748BF20F8022B11F0804F18BFB5
:100AD00000F8012B704710B5044610F0030F08BF53
:100AE00011F0030F40F015804FF0013E121FC0F2CD
:100AF0000E8051F8043BA3EB0E0C2CEA030C1CEA0D
:100B0000CE1C08BF40F8043BF0D0A1F1040102F173
:100B10000402521E08DB11F8013B002B00F8013BD8
:100B2000F7D11146FFF78EFF204610BD4FF0013C74
:100B300050F8042B51F8043B9A4221D1A2EB0C034C
:100B4000934313EACC1317D150F8042B51F8043B0C
:100B50009A4215D1A2EB0C03934313EACC130BD1A9
:100B600050F8042B51F8043B9A4209D1A2EB0C0334
:100B7000934313EACC13DBD04FF00000704700BF63
:100B8000D01A01BAB1FA81F101F0180122FA01F08C
:100B9000CB40C1F12001DBB2C0B2C01A2CFA01F384
:100BA000D11A914311EAC311E6D1704770477047DB
:100BB0007047704710B500F0F5FB001D10BD00BF79
:100BC00041A8000000487047285B012009684A05D9
:100BD00001D540B27047C905FCD500B2704709681D
:100BE0004A0501D5C0B27047C905FCD580B270472F
:100BF0002DE9F0470D4699469246044600F1240837
:100C00000168880604D5E06921F01001216000E048
:100C10000120A84201DD471B00E00027A1697A19E5
:100C200002EB0900081AA0612078C00602D4204611
:100C3000FFF738FC002608E0D4E901211AF8060085
:100C40009047206A401C761C20624E45F4DB2078D9
:100C5000C0060AD52046FFF725FC06E0D4E90121AD
:100C600030209047206A401C2062381EA7F10107FF
:100C7000F4DC07E0D4E9012118F805009047206A68
:100C8000401C2062281EA5F10105F3DC2046FFF779
:100C90001FFC2078000602D50220BDE8F087012065
:100CA000FBE711680268006A530501D508700AE085
:100CB000D30501D5088006E0130603D5C217C1E9A4
:100CC000000200E008600120704770472DE9FF4FE7
:100CD0000C461E464FF0FF378BB0D2E90001DDF81D
:100CE00060800A908A46C1F30A5505B93D46002145
:100CF00008464FF00000BAF1000F00F4400005DA9A
:100D000000EB80004FF4400101EA50004FEA905997
:100D1000B9F1010F00DDB9460A9850EA4A000ED039
:100D200044F61050A5F2FF3545432F14B8F1000FDB
:100D30001ED07542291E1EDDC9F100021CE0B8F16B
:100D4000010F4FF0000001D0302103E0F24305E035
:100D50002154401CB042FBDB3046002200212154CC
:100D60000B99C1F80880C1E900200FB0BDE8F08FF1
:100D7000BD1B6D1CDEE74A4600DA694206A800F09A
:100D80007FFD06AB93E8070003AB83E807005046FE
:100D90000A9900F047FE8DE80700A0F500501F38C3
:100DA00000900398002D0ADD42F21F014A460844D4
:100DB000002303A90390684601F0B0F809E0A0F50C
:100DC00000504A461F38002303A90390684601F0EB
:100DD000BAF88DE807000004000C03D04FF0FF3094
:100DE000410800E01046B8F1000F03D00022009245
:100DF00015461EE0751E05D400F0D8FA3032625553
:100E00006D1EF9D5B3460122084302D000227F1C93
:100E100004E02078302801D100227F1E002A0997A3
:100E200084D01DE0112D07DA00F0C0FA303262558F
:100E30006D1C50EA0102F5D1084302D00098C8B1F8
:100E40000EE00021681E05E0235C625C63542254BE
:100E5000401E491C8142F7DBAB46A81B401E09908F
:100E6000002004F80B000B98099AC0F80880C0E92C
:100E7000002B7AE711264FF0000857E72DE9F04FD5
:100E800088460446D21D22F0070191B0D1E9000145
:100E9000CDE90A0102F0E3F802460B98C00F01D039
:100EA0002D2007E02068810701D52B2002E02021BA
:100EB00001EAC000032A099001D0072A05DB034696
:100EC0004146204600F036FC0BE12078800601D533
:100ED000E06900E00620B8F1650F814606D0B8F160
:100EE000660F18D0B8F1670F70D131E00020B9F16A
:100EF000110F009001DB112301E009F101030AAA9F
:100F000001A90CA8FFF7E2FEDDE90C70002609F14B
:100F10000105834647E001204B4600904FF0004713
:100F20000AAA01A90CA8FFF7D1FEDDE90DB00C99C2
:100F30005D46002610B909F101000D18B9EB050056
:100F400003D4C0F1FF3609F10105A5EB09002BE040
:100F5000B9F1010F01DA4FF001090020B9F1110FC9
:100F60000090484601DD112300E003460AAA01A9CA
:100F70000CA8FFF7ABFEDDE90C704D46002683465A
:100F8000207800070AD4AB4500DA5D4601A8012DA0
:100F900004DD411911F8011C302907D04F4502DA50
:100FA00017F1040F04DA012082460FE06D1EEEE710
:100FB000002F02DCED1B3E4403E0781CA84200DD5C
:100FC0007D1CB81B00F1010A4FF000472078000794
:100FD00003D4AA4501DB4FF0FF3A0021B7F1004FDF
:100FE0000DF143088DF8431024D002202B23002F4D
:100FF00001DA7F422D230A21021EA0F1010000DC4C
:101000005FB197FBF1FC97FBF1F201FB1C7C1746EB
:101010000CF1300C08F801CDEEE7A8F101000370E7
:101020002188090501D5452100E06521A0F10108CD
:1010300000F8011C09980FA9A1EB0807FF1D00B1DA
:101040000120411901EBEA70A1693844081A401ED9
:10105000A0612078C00602D42046FFF723FA099841
:1010600028B1D4E901219047206A401C20622078F1
:10107000C00622D52046FFF715FA1EE0002E04DB3D
:10108000B34502DD01A8805D00E03020D4E90121F4
:101090009047206A401C2062761CAAF101005FEA9A
:1010A000000A0AD100F07EF9C0680168405CD4E90A
:1010B00001219047206A401C2062281EA5F10105ED
:1010C000DCDC07E0D4E9012118F8010B9047206A25
:1010D000401C2062381EA7F10107F3DC2046FFF711
:1010E000F7F9032011B041E601694A1C0261087852
:1010F000704700B58FB0CDE9013100210591054958
:101100007944CDE9031011466846FFF7A1FA0FB004
:1011100000BD0000E5FFFFFF0A6802F8010B0A604E
:101120007047D1E900239A4202D2531C0B60107021
:10113000704710B5436913B1AFF3008001E0FFF7CA
:10114000D8F9012010BD127800F124010A700022A4
:101150004A700122EDE711684FF0FF32E9E7000025
:10116000074B70B50D467B44FFF7C3FF0446284686
:1011700000F0F8FB10B14FF0FF3070BD204670BD9D
:101180005F3500002DE9FF5F15468A460446DFF80B
:10119000AC80F8440027D8E900103E46CDE90010A5
:1011A00010E03AF816106A4602A800F0DFFB411C76
:1011B00007D02178890603D5E269391891420DD804
:1011C0000744761C2078800602D5E069B84205DD28
:1011D000AE42E6DB3AF816000028E2D1A069C01B57
:1011E000A0612046FFF75EF9D8E90010CDE90010B4
:1011F000002017E03AF818106A4602A800F0B6FB83
:10120000B0F1FF3F81460BD000250DF1080B05E042
:10121000D4E901211BF8050090476D1C4D45F7D31B
:1012200008F10100B0428046E4DB206A38442062C5
:101230002046FFF74DF9BDE8FF9F0000DEA8000043
:101240002DE9F0418046D21D22F007020025D2E9A7
:101250000002F52915A614D0011E72F1000106DA6C
:101260000023D0EB030063EB020211A608E0D8F8DC
:1012700000108B0701D50FA602E0490701D50EA685
:1012800001251146002408F1240704E000F08EF83F
:1012900030323A55641C50EA0102F7D12B463246EF
:1012A00021464046BDE8F041FFF7A2BC0000000027
:1012B0002D0000002B0000002000000030B40021B1
:1012C00000F1240408E002F00705D208303542EAB4
:1012D0004372DB086554491C52EA0305F3D10468E4
:1012E000002310A2250707D5A40600D421B1C469A4
:1012F00001230DA2641EC46130BCFFF779BC10B598
:10130000044621461068FFF76AFC02462046BDE805
:1013100010400023D2E7D21D22F00701D1E90023BB
:10132000CCE7000000000000300000002DE9F0478D
:1013300091460F4680460446002614F8015B2DB105
:10134000FFF738FC0068405DC007F6D12B2D02D0B6
:101350002D2D18D0641E4A463946204600F040FA2A
:1013600027B13968A14201D1C7F800804FF00204CB
:1013700071050BD54042002803DDFFF723FC046014
:10138000A007BDE8F08746F48066E4E70028F8DAB5
:10139000FFF718FC04606FF00040F2E70048704768
:1013A000285B012000487047485B012030B5B0F150
:1013B0000A024FEA900E71F100034EEA817EB0EB13
:1013C0000E0061EB91014FEA101E4EEA017E10EB18
:1013D0000E0041EB11114FEA102E4EEA016E10EB98
:1013E0000E0041EB11214FEA104E4EEA014E10EB78
:1013F0000E0041EB1141401841F100014FEAD000CD
:1014000040EA41704FEAD10110EB80054FEA8104B8
:1014100044EA907444EB01046D1944EB0404521B3C
:10142000A3414FF0000348BF0A3200D530BD401C35
:1014300041F1000130BD00002DE9F04F04460D469A
:10144000D21D22F0070089B0D0E9009748463946FE
:1014500001F005FE0246F80F01D02D2307E02068B9
:10146000810701D52B2302E0202101EAC0038DF87A
:1014700020300BB1012000E00020032A824601D079
:10148000072A04DB2946204600F054F93FE1207882
:10149000800601D40D2500E0E569C7F30A560D2D3D
:1014A00049DA00214FEA175B08464FF00000002F91
:1014B00000F4400007DA00EB80004FF4400100EB3D
:1014C000D07001EA60008115012901DD4FF0FF3184
:1014D00000224FEA850CBCF1180F06D31346ACF17D
:1014E00018004FF08052C24003E04FF4801323FAFB
:1014F0000CF30CF10C0CBCF1200F04D3ACF1200C5C
:1015000009FA0CF001E007FA0CF000294FF000484E
:1015100001DD18B90FE00ED140450CD319EB0209DB
:101520005F4121B9404502D19F4329EA0209BBEB43
:10153000175F00D0761C2088000502D57B487844D0
:1015400002E07A487844193808AA302302F80A30B1
:10155000037C0AF10101002E0AF1020A53546A4683
:1015600002DC4FF0300101E04FF031014FF0010893
:101570008DF8001002D0A6F2FF3603E059EA4701C9
:1015800000D06B4E002D02DC2178090704D54FF006
:1015900002082E218DF80110C44600210BE0C7F38C
:1015A00003433F01C35C491C6D1E02F80830052946
:1015B00008F1010801DA002DF1DC00210CE000EB5C
:1015C0001973491C1B786D1E082902F808304FEA70
:1015D000091908F1010801DA002DF0DC21688B06F9
:1015E00002D516E0A8F10108E04505DD02EB08038D
:1015F00013F8013C302BF5D0B8F1000F09DD02EBF8
:10160000080313F8013C2E2B03D1090701D4A8F1DC
:101610000108002D05DD3E2102F808106D1E08F1BD
:101620000108407C002E02F8080008F1010804DAE5
:101630002D20764202F8080002E02B2002F8080074
:101640000A214FF47A70864208F101080BDB96FB01
:10165000F0F3303302F8083096FBF0F308F101089C
:1016600000FB136601E0642E0CDB642096FBF0F3B4
:10167000303302F8083096FBF0F308F1010800FB64
:10168000136601E00A2E06DB96FBF1F0303002F81B
:10169000080008F1010896FBF1F001FB1060303002
:1016A00002F80800A16908F1010808EB050202EB45
:1016B0000A00081AA0612078C00602D42046FEF76E
:1016C000F1FE216A08AE01EB0A00206204E0D4E9D1
:1016D000012116F8010B9047BAF1010AF7D22078E0
:1016E000C00602D52046FEF7DDFE6E4609E016F87C
:1016F000010B3E280FD0D4E901219047206A401CFD
:101700002062B8F10108F2D22046FEF7E1FE09B0EE
:101710000320BDE8F08F206A2844206203E0D4E96A
:101720000121302090476D1EEBD3F8E74DA5000056
:1017300002FCFFFF2DE9F0411F4604460326016825
:10174000072A01F4006004DB08B116A505E016A520
:1017500003E008B115A500E015A521F010002060F8
:10176000A069C01EA0610FB1401EA0612046FEF717
:1017700099FE4FB1D4E9012138469047206A401CB8
:101780002062C01C206206E0206AFAE7D4E9012149
:1017900015F8010B9047761EF8D22046FEF798FE0A
:1017A000BDE8F0814E414E006E616E00494E46002C
:1017B000696E660010B5436913B1AFF3008001E0B4
:1017C000FFF7E0FC012010BD128800F124018284A3
:1017D0000022C2840122EDE711684FF0FF32E9E7F1
:1017E0002DE9F05F824615468B4600270AF1010479
:1017F000B9460078302801D09DB113E014F8010BF0
:101800000127782803D0582801D045B10AE00DB14E
:10181000102D07D1002714F8010B102502E0082530
:1018200000E00A250026B0460EE005FB080005FB97
:1018300006F101271FFA80F801EB1046B6F5803F4C
:1018400000D3B94614F8010B294600F0D4F800285B
:10185000EBDABBF1000F05D00FB1641E00E0544677
:10186000CBF80040B9F1000F06D0FFF7ABF9022129
:101870000160C81EBDE8F09F48EA0640FAE7000094
:101880002DE9F047814616468AB0354878440DC8A0
:101890008DE80D0032487844801C03AC0DC884E804
:1018A0000D0041F69B300844372190FBF1F290FB8C
:1018B000F1F5A5F1800501FB12041B3C02D5644241
:1018C000012000E00020DFF898A080460027FA44BD
:1018D000AAF1BE0A0EE0E0070AD03246684607EBDE
:1018E000470101230AEB810100F02DFB8DE8070081
:1018F00064107F1C002CEED1194F7F44AE3F19E0DD
:10190000E80715D007EB04100DF1180A90E80E0057
:101910008AE80E00C068F04201D19819089032465A
:10192000012306A903A800F00EFB03AB83E8070020
:101930006D10641C002DE3D14FF00103324669465F
:10194000B8F1000F03A802D000F0E8FA01E000F0BF
:10195000FAFAC9E90001C9F808200AB0BDE8F08721
:1019600090A20000007B00F08000704770B5164622
:101970000C460546FFF71EF9036893F8010101289C
:1019800006D0FF2C0FD8185D68B101202C7070BDF7
:10199000D3F807013246214603F2071303442846D1
:1019A000BDE8704018474FF0FF3070BD7546FFF737
:1019B000F5FCAE4605006946534620F00700854613
:1019C00018B020B5FEF710FDBDE820404FF000062E
:1019D0004FF000074FF000084FF0000B21F0070117
:1019E000AC46ACE8C009ACE8C009ACE8C009ACE85A
:1019F000C0098D4670473A2800D2303820F02002C6
:101A0000412A01D3A2F13700884201D34FF0FF30C1
:101A1000704710B50446AFF300802046BDE8104083
:101A2000FEF771BC5FEA400C08BF91F0000F4FEA6F
:101A30008C234FEAC12243EA51514FEA1C5018BF90
:101A400000F5F0404FEA300018BF41F000415FEA76
:101A50006C5C00F02980BCF1FF3F08BF40F0804083
:101A60007047130C06BF12044FF0100C4FF0000C1F
:101A7000130E04BF12020CF1080C130F04BF120165
:101A80000CF1040C930F04BF92000CF1020CD30F65
:101A900004BF52000CF1010C11464FF00002A0F1FE
:101AA0001F00A0EB0C00704711F0004F08BF7047FB
:101AB00031F000413FF4D5AF0B0C06BF09044FF0E5
:101AC000100C4FF0000C0B0E04BF09020CF1080CB7
:101AD0000B0F04BF09010CF1040C8B0F04BF89002C
:101AE0000CF1020CCB0F04BF49000CF1010CCCF13E
:101AF0002003A0EB0C0022FA03F302FA0CF241EAF5
:101B0000030100F10100704720F07F4C80EA0300E0
:101B100023F07F47ACEB070303F57C5300F0004054
:101B200003F1FF032DE980494FEA154B09B44FEA51
:101B3000144325EA0B4E24EA03480FF2042606EB71
:101B4000132749083E785FEA320203FB0667C7F5B0
:101B5000000707FB06F64FEA54374FEAD64606F170
:101B6000020607FB066CCCF1005C4FEA1C472CEA2E
:101B7000074C07FB06F40CFB06F504EB15464FEA91
:101B8000961634BF00204FF000404FEAD13706FBD5
:101B900007FC4FEA1C4C0CFB0BF7D21B03FB0CF7AA
:101BA00061EB07010CFB0EF7B0EB074072EB17423D
:101BB0000CFB08F734BFA2EB0742B2EB074261EB24
:101BC00017414FEA0C444FEA910706FB07FC4FEA26
:101BD0001C4C0CFB0BF7B0EBC74072EB573203FB0E
:101BE0000CF734BFA2EBC742B2EBC74261EB5731EF
:101BF0000CFB0EF7B0EBC70072EB57720CFB08F74B
:101C000034BFA2EBC702B2EBC70261EB5771039F6F
:101C10004FEA816141EA921104EBCC044FEAD137DB
:101C20004FEA826206FB07FC42EA90124FEA8060AC
:101C30004FEA1C4C0CFB0BF7D21B03FB0CF761EBC0
:101C400007010CFB0EF7B0EB074072EB17420CFBE1
:101C500008F734BFA2EB0742B2EB074261EB174132
:101C60004FEA8C554FEA910704EB9C2406FB07FCD6
:101C70004FEA1C4C0CFB0BF7B0EBC74072EB573232
:101C800003FB0CF734BFA2EBC742B2EBC74261EBD8
:101C900057310CFB0EF7B0EBC70072EB57720CFB21
:101CA00008F734BFA2EBC702B2EBC70261EB577172
:101CB00015EB4C254FEA816141EA92114FEA8262AD
:101CC0004FEAD13742EA901206FB07FC44F10004C8
:101CD0004FEA80604FEA1C4C0CFB0BF7D21B03FB56
:101CE0000CF761EB07010CFB0EF7B0EB074072EB52
:101CF00017420CFB08F734BFA2EB0742B2EB0742D6
:101D000061EB174115EB1C154FEA813141EA924115
:101D10004FEA823242EA90424FEA80304FEA0C7634
:101D200044F1000448EA03434EEA0B484FF0000E2A
:101D3000B2EB080C71EB030724BF624639464EEB49
:101D40000E0E4FF0000B0018524149414BEB0B0BAC
:101D5000B2EB080C71EB03077BF1000B24BF62466A
:101D600039464EEB0E0E4FF0000B00185241494120
:101D70004BEB0B0BB2EB080C71EB03077BF1000B89
:101D800024BF624639464EEB0E0E51EA020718BFD9
:101D900046F0010616EB0E7655F1000254F10001F3
:101DA00003D5BDE88901BDE80088BDE88901BDE82B
:101DB0000048B619524141EB0101A3F101037047FC
:101DC00080807F7E7D7C7B7A797877767675747378
:101DD000727171706F6E6E6D6C6C6B6A6A69686837
:101DE000676666656464636362616160605F5F5ECD
:101DF0005E5D5D5C5C5B5B5A5A5959585857575643
:101E000056555555545453535252525151505050A7
:101E10004F4F4F4E4E4D4D4D4C4C4C4B4B4B4A4AF9
:101E20004A4949494848484747474746464645453D
:101E30004544444444434343434242424241414176
:101E4000002B9C4630D477002BD01CB54FEA3707C7
:101E500003B44FF010004FF01001BAF1000F06D09C
:101E6000BCF1000FDCBF40F0080040F008014FF06B
:101E700000000FBCBDE810400BF1010BBBF1010FDE
:101E800008BF5FEA170722BF12F1010211F1010139
:101E90004FF0004143F1000300F0004043EA00002E
:101EA0007047F9D35708D0E746EA064613F1400FCA
:101EB0004FEA16461FDD13F1200FDFBF16430A4617
:101EC000002120335B42BED0C3F1200746EA06461C
:101ED00002FA07F74FEA164646EA0706C3F120075B
:101EE00022FA03F201FA07F721FA03F14FF0000397
:101EF00042EA0702A7E746EA020646EA06464FEA32
:101F0000164646EA0106BCBF46EA0646360C4FF0C6
:101F100000034FF000024FF0000194E72DE9804CE0
:101F20009A46934670B491E8380007C831EA400CED
:101F300048BF34EA430C03D5FFF7E6FDFFF780FF07
:101F4000F0BCBDE8008C2DE9804C9A46934670B4F5
:101F500091E8380007C810F0804F08BF13F0804F99
:101F600003D100F005F8FFF76BFFF0BCBDE8008C73
:101F700020F07F4780EA030023F07F4C07EB0C033F
:101F8000A3F57C5300F00040A3F1FE0392F0000F94
:101F900000F0B38095F0000F00F077802DE9014943
:101FA0004FEA11404FEA144621EA004800FB06FCC4
:101FB00024EA064708FB06F607FB08F800FB07F7CC
:101FC00018EB06484CEB164C4FEA124B18EB07483F
:101FD0004FEA15464CEB174022EA0B4E0BFB06FC72
:101FE00025EA06470EFB06F607FB0EFE0BFB07F77E
:101FF0001EEB064E4CEB164C4FF000061EEB074E48
:102000004CEB174B18EB0B0840F1000018EB0E0BD4
:1020100058EB000840F100008F1A4FF000013CBF60
:10202000C943661B14BFB5EB040C00213CBFC94378
:10203000F61B4FEA17444EEA8E0E27EA04454FEA94
:102040001C4704FB07622CEA074C05FB07F70CFB57
:1020500005F604FB0CFC16EB074642EB174216EBA9
:102060000C4642EB1C421BEB060658EB02024141B8
:1020700046EA9E0601D5BDE80189B619524141EBF9
:102080000101A3F10103BDE801894FEA14454FEABC
:10209000114724EA054621EA074C05FB07F406FB35
:1020A00007F70CFB06F105FB0CFC11EB074144EBB9
:1020B00017444FEA124711EB0C4144EB1C4422EA4F
:1020C000074C05FB07F206FB07F70CFB06F605FBC2
:1020D0000CFC16EB074642EB174216EB0C4642EBA4
:1020E0001C456A1854F1000148BF7047B6195241A7
:1020F00041EB0101A3F10103704795F0000F37D0C8
:102100004FEA11424FEA144721EA024624EA074CFB
:1021100002FB07F106FB07F70CFB06F402FB0CFCC5
:1021200014EB074441EB17414FEA154714EB0C44FD
:1021300041EB1C4125EA074C02FB07F506FB07F7BC
:102140000CFB06F602FB0CFC16EB074645EB1745AD
:1021500016EB0C4645EB1C42121951F1000148BF29
:102160007047B619524141EB0101A3F101037047D9
:102170004FEA14454FEA114724EA054621EA074C85
:1021800005FB07F106FB07F70CFB06F24FF0000614
:1021900005FB0CFC12EB074241EB174112EB0C4222
:1021A00051EB1C4148BF7047921841EB0101A3F16C
:1021B000010370470029816802D041F0010101E06C
:1021C00021F0010181607047084B10B5D3F804235A
:1021D00007490A40D0E900142143D0E902400443F2
:1021E00021431143C3F8041310BD00000020014037
:1021F000E030FCFFC06C80B27047024600201268DD
:102200000A4200D00120704730B542680F4B0C796C
:102210001A400B6842EA04221343436082680C4B65
:102220004D791A40D1E9034323438C6844EA4504BD
:10223000234313438360C26A097D22F47002491E5E
:10224000C9B242EA0151C16230BD0000FFFEFFFC8D
:10225000FDF7FFC070B5072609290AD9C568A1F1A5
:102260000A0404EB4404A640B543A3401D43C560E3
:1022700007E0056901EB4104A640B543A3401D43B7
:1022800005611F23072A09D2446B521E02EB82020A
:1022900093409C4391400C43446370BD0D2A09D286
:1022A000046BD21F02EB820293409C4391400C438B
:1022B000046370BDC46A0D3A02EB820293409C43F2
:1022C00091400C43C46270BD816841F080418160DF
:1022D0007047FEE770470000014908607047000042
:1022E000143C014030B51A4A8379016853B313682E
:1022F0008B431360111D0B680468A3430B600179C5
:1023000011440B68046823430B60114B08331968B0
:102310000468A14319601C1D21680568A943216058
:102320004179102905D011440A68006802430A6007
:1023300030BD1968026811431960216800680143C3
:10234000216030BD0079104402688A43026030BDCC
:10235000003C014005490028086802D040F4806034
:1023600001E020F48060086070470000003C0240FB
:1023700070B50646002529B1012927D0022928D0A9
:102380004FF4407500F080F809281ED1124C2068E7
:1023900020F440702060206828432060206820F0EE
:1023A000F8002060206846F00201084320602068A1
:1023B00040F48030206000F067F8216821F00201CD
:1023C0002160216821F0F801216070BD4FF4807513
:1023D000D8E74FF40075D5E7103C02400D490920BD
:1023E0000A68D20301D5012070470A68D20601D5D8
:1023F000062070470A68D20501D5022070470A6896
:1024000012F0EF0F01D00720704709688907FBD54C
:10241000082070470C3C02400248016841F000412E
:1024200001607047103C024070B50D46064600F052
:102430002BF8092813D10A4C206820F44070206042
:10244000206840F400702060206840F001002060A7
:10245000356000F019F8216821F00101216070BD9C
:10246000103C024005480068002805DA034804498A
:102470000C3801600349016070470000103C0240C5
:1024800023016745AB89EFCD08B509208DF8000021
:10249000FFF7A4FF8DF800009DF800000128F7D099
:1024A0009DF8000008BDF0B5002201274FF0030C95
:1024B0000B6807FA02F52B40AB422CD1066853009B
:1024C0000CFA03F4A64306600E79D0F800E09E40B3
:1024D00046EA0E0606600E79012E01D0022E12D1B8
:1024E0008668A64386604E79D0F808E09E4046EAAA
:1024F0000E0686604668AE43466045688E79964013
:10250000B6B235434560C568A543C560CC799C40EB
:10251000C3681C43C460521C102AC9D3F0BD4B07CA
:10252000DB0E9A40C90810B500EB8100016A0F2448
:102530009C40A1430162016A1143016210BD024641
:10254000002012690A4200D0012070474183704781
:1025500001837047FEE70029018802D041F48061C1
:1025600001E021F4806101807047034600209A8ACF
:102570001B8B42EA034222F07F42914300D10120AB
:1025800070470029018802D041F0010101E021F0EB
:102590000101018070470029018802D041F4807157
:1025A00001E021F48071018070470029018802D088
:1025B00041F4007101E021F40071018070470000D6
:1025C0007FB5044680880D4620F03F06684600F03F
:1025D000D5F827490298B0FBF1F189B20E43A680E5
:1025E000228822F001022280224B2A689A421BD8BC
:1025F0005200B0FBF2F080B2042800D20420491C43
:102600002184A083208840F00100208020884FF69C
:10261000F5310840A9886A89114301432180A889BE
:102620002989084320817FBDEB88A3F53F46FF3E03
:102630000BD002EBC20303EB0212B0FBF2F080B24C
:1026400040F48040020506D007E002EB4202B0FBF6
:10265000F2F080B2F6E740F001004FF49672514379
:102660004FF47A72B1FBF2F140F40040C7E700008A
:1026700040420F00A0860100008AC0B2704712B12C
:1026800041F0010101E001F0FE0101827047018289
:102690007047FEE77047000030B50F23C27801781D
:1026A0000125FAB1144A126801F1E02102F4E06256
:1026B000C2F5E062C2F30722C2F10404D3404278BB
:1026C000A24084781C401443220181F80024007841
:1026D00000F01F018D404009800000F1E020C0F8AB
:1026E000005130BD01F01F0085404809800000F115
:1026F000E020C0F8805130BD0CED00E002490843F5
:1027000002490860704700000000FA050CED00E087
:10271000014908627047000000000E42044A002987
:10272000116801D0014300E081431160704700004F
:1027300030380240044A0029116801D0014300E00A
:10274000814311607047000040380240044A00296C
:10275000116801D0014300E081431160704700001F
:1027600044380240044A0029116801D0014300E0C6
:1027700081431160704700002438024070B5204B3F
:102780001968204C11F00C0104D06610042903D004
:10279000082903D004601BE0066019E0184A121FE4
:1027A0001168C1F38055116801F03F0115B1B6FB06
:1027B000F1F101E0B4FBF1F114681268C4F388147C
:1027C0006143C2F30142521C5200B1FBF2F10160BD
:1027D00019680F2202EA11110B4A545C0168E140AA
:1027E00041601C68072505EA9424145D21FA04F46D
:1027F00084601B6805EA5333D25CD140C16070BD70
:10280000083802400024F400E400002002460020C2
:10281000510901290BD002290CD00849096802F09E
:102820001F02012393400B4200D00120704703494F
:102830007439F3E70149091FF0E7000074380240DA
:10284000054900220A700A70012802D0042801D12B
:102850000520087070470000703802400149086088
:10286000704700003C0E4742C0F30121032907D105
:10287000074B1968074A21F4F81102400A431A600D
:10288000034968310A68C0F30B0002430A607047CD
:1028900008380240FFFCFF0F10B54FF4807420464B
:1028A00000F054F8012806D1204600F00DF8054844
:1028B000406800B18047BDE810404FF40030FFF79A
:1028C0000BBD0000DC00002080B240F08000C1435E
:1028D0000348026802F08002114301607047000063
:1028E0000C280040C0F30F1040F08000C1430348A3
:1028F000026802F080021143016070470C2800401A
:1029000008B50D49002000900868400612D44FF029
:10291000FF3008608B130868009A00F04000521CDA
:1029200000929A4201D00028F5D00868400601D4F0
:10293000002008BD012008BD0C28004002480168A5
:1029400021F08001016070470C28004004490246D4
:1029500000200968034B1940114200D00120704744
:102960000C2800407F3F010030B50E4DCA222A607E
:1029700053222A600B4C0B4B1C3C1C33002920F0CB
:102980000402216800F0040004D01143216019689A
:10299000014303E091432160196881431960FF20DE
:1029A000286030BD2428004070B5124D0446002632
:1029B000CA20286053202860FFF7A2FFA8B10D4865
:1029C0001C38016821F04001016001682268114350
:1029D00001600848A168143801600168A28841EAD2
:1029E00002410160FFF7AAFF0126FF202860304660
:1029F00070BD00002428004008B5034901EB8000A9
:102A00000090006808BD0000502800400549CA2217
:102A10000A6053220A60034A103A1060FF200860DF
:102A2000704700002428004010B54FF48064204611
:102A3000FFF78CFF012806D12046FFF745FF054828
:102A4000006800B18047BDE810404FF48000FFF7F8
:102A500043BC0000DC000020084ACA211160532159
:102A6000116006491C390B6823F007030B600B68E3
:102A700003430B60FF2010607047000024280040D3
:102A800018B50021134B0091CA2119605321196018
:102A900010491C390028086803D040F480600860A1
:102AA00014E020F4806008600A4918398C13086823
:102AB000009A00F00400521C0092A24201D00028AB
:102AC000F5D00868400701D4002000E00120FF2174
:102AD000196018BD2428004008B5034A02EB8000A5
:102AE0000090016008BD00005028004010B5094C5E
:102AF0006021204600F01CF8002809D0204600F094
:102B000039F805490968002902D0BDE81040084796
:102B100010BD000000380040D400002000290188CA
:102B200002D041F0400101E021F0400101807047F6
:102B300030B501F00F030125024605FA03F4002029
:102B4000A3B2090905FA01F49188A4B212892140BF
:102B50001A4202D0002900D0012030BD090901230A
:102B60008B40002A828899B201D00A4300E08A4350
:102B7000828070478089704730B502884C8802F4A3
:102B800041530A88CD8822438C882C4322430C89E8
:102B900022434C8922438C892243CC8922431A4305
:102BA0000280828B22F400628283098A018230BD16
:102BB0000CB50022274900920192086840F4803049
:102BC00008604FF4A043086800F4003001900098BA
:102BD000401C0090019810B900989842F3D1086801
:102BE000800334D5012001901A484030026842F039
:102BF000805202601848026842F440420260154860
:102C0000083002680260026842F400420260026812
:102C100042F4A0520260031F104A1A600A6842F090
:102C200080720A600A689201FCD50D4940F2057273
:102C30000A60016821F003010160016841F00201AE
:102C400001600168C1F381010229FAD10CBD019232
:102C50000CBD0000003802400070004008544007DE
:102C6000003C02404FF0E0210428086903D020F026
:102C700004000861704740F00400FAE710B507F05F
:102C80002FFF012803D0BDE8104007F0B9BB10BDED
:102C9000124810B5016841F47001016010480168E4
:102CA00041F0010101600E4A002108321160026802
:102CB0000C4B1A400260031D0B4A1A60026822F492
:102CC0008022026006480C300160FFF771FF034963
:102CD0004FF000608039086010BD000088ED00E012
:102CE00000380240FFFFF6FE1030002410B5084CFB
:102CF0000121204600F01DF8012803D10548016894
:102D000001B188472046BDE81040012100F004B819
:102D100000040040D8000020C94301827047002908
:102D2000018802D041F0010101E021F001010180A0
:102D3000704702460020138A92890B4202EA010280
:102D400002D0002A00D001207047002A828901D0D9
:102D50000A4300E08A4382817047000030B5028850
:102D6000164C174DA0420DD0A8420BD0B0F1804FA9
:102D700008D0144B984205D0134B984202D0134B05
:102D8000984203D122F070034A881A43104B9842AC
:102D900006D0104B984203D022F440730A891A439C
:102DA00002804A68C2620A880285A04201D0A84215
:102DB00001D1897A01860121818230BD0000014064
:102DC000000401400004004000080040000C0040E6
:102DD000001000400014004010B50A4C40F225518C
:102DE000204600F0A6F800280AD0204600F02EF970
:102DF0000549C0B2C968002902D0BDE810400847A3
:102E000010BD0000004C0040A400002010B50A4C8A
:102E100040F22551204600F08CF800280AD02046C8
:102E200000F014F90549C0B20969002902D0BDE8D3
:102E30001040084710BD000000500040A4000020D2
:102E400010B50A4C40F22551204600F072F80028D7
:102E50000AD0204600F0FAF80549C0B209680029F6
:102E600002D0BDE81040084710BD0000001001402E
:102E7000A400002010B50A4C40F22551204600F075
:102E800058F800280AD0204600F0E0F80549C0B202
:102E90004968002902D0BDE81040084710BD000075
:102EA00000440040A400002010B50A4C40F2255117
:102EB000204600F03EF800280AD0204600F0C6F870
:102EC0000549C0B28968002902D0BDE81040084712
:102ED00010BD000000480040A400002010B50A4CBE
:102EE00040F22551204600F024F800280AD0204660
:102EF00000F0ACF80549C0B24969002902D0BDE82C
:102F00001040084710BD000000140140A40000203C
:102F10000029818902D041F4005101E021F40051DF
:102F2000818170470246002012880A4200D00120A9
:102F3000704770B501F01F0501260024C1F342134C
:102F400006FA05F2012B0FD0022B0FD0838A4FEA2D
:102F500011210088134206FA01F600EA060001D0AA
:102F600000B10124204670BD8389F0E7038AEEE7B3
:102F700010B5C1F3421301F01F040121A140012B40
:102F800007D0022B07D01430002A026805D00A436C
:102F900004E00C30F8E71030F6E78A43026010BD19
:102FA0007FB50446008A0D46C98820F4405001438D
:102FB0002182A08941F20C618843A9882A891143A2
:102FC0006A8902431143A181A08A20F44071A88933
:102FD0000843A0826846FFF7D1FB1A48844202D01A
:102FE0001948844201D1039800E00298A18909049C
:102FF00000EBC00101EB0010296801D5490000E099
:103000008900B0FBF1F06422B0FBF2F109010B0979
:103010006FF018056B4300EB8300A3891D044FF08C
:10302000320306D503EBC000B0FBF2F000F007005E
:1030300005E003EB0010B0FBF2F000F00F000843D6
:1030400020817FBD00100140001401408088C0F342
:1030500008007047C1F3080181807047FEE703B4A0
:1030600001984100009850EAC12018BF04204A0D81
:1030700018BF40F0010040F2FF72B2EB515F08BF91
:1030800040F00200012808BF052002B07047303828
:103090000A2801D2012070470020704770470000C5
:1030A0000A46014602480023806807F011BB000071
:1030B0007401002008B5054600213848009104F04D
:1030C0008BF9002204210A2007F0B0F9344CA060EB
:1030D00001F0CCFF40F6B836002332466946A068BE
:1030E00007F0E0F90128206808D0806800B1804727
:1030F00002F030F8322006F07DFAEDE728B3BDF893
:103100000010A1390D2941D2DFE801F0070920257F
:1031100027292B2D2F313D444600C26817E0BDF80A
:10312000021020A0FDF780F92068016969B19DF8BF
:103130000310A52905D19DF802101D4A515C8DF898
:1031400002100269BDF8021090471FE04269EAB11F
:10315000BDF80210F8E78269F9E7C269F7E7026A89
:10316000F5E7426AF3E7826AF1E7C26AEFE70178BE
:1031700000EB8100406B07E02060BDF80210426860
:103180000846904702E0006B0028F5D1002DAFD033
:10319000A847ADE7406CF7E7806CF5E71932000807
:1031A000740100206B65793A2025780D0A00000033
:1031B00028BA00081CB5134A0021535C834204D08E
:1031C000491CC9B21029F8D31AE0102918D20D48A9
:1031D0000023083801AA0068009041F42540ADF8AA
:1031E000020009486946806807F036FB019838B14B
:1031F00006494FF080500860BFF34F8FBFF36F8FC9
:1032000000201CBD28BA00087401002004ED00E075
:10321000062004F045B800001CB50C49002301AAA3
:1032200049680091ADF8020009486946806807F0D6
:1032300013FB019838B107494FF080500860BFF385
:103240004F8FBFF36F8F00201CBD000020BA000815
:103250007401002004ED00E01CB5074A0B4607A1ED
:103260001060121D0A20CDE900024FF400620748E9
:1032700007F00AFC1CBD0000740100206163746942
:10328000766974795F7461736B000000B530000873
:1032900070B5074D0C4602212846FEF7AEFF002808
:1032A00004D02846FEF7A6FF2080012070BD000054
:1032B0000020014030B58DB001210420FFF72EFA27
:1032C00001210D022846FFF741FA032010218DF855
:1032D0002C000A9100248DF82F400AA91448FFF70A
:1032E000E2F801212846FFF73DFA00212846FFF7C2
:1032F00039FA4FF4A060CDE90840280207900694FF
:1033000006A8FEF761FF8DF8044000948DF8054093
:10331000029404940120074C8DF81400694620465D
:10332000FEF772FF01212046FEF744FF0DB030BDCD
:10333000000802400020014010B5064C014607235A
:1033400001222046FEF786FF2046BDE81040FEF72A
:10335000BBBF0000002001402DE9F04F8BB00025DD
:10336000080A0295039504950A95CCB2099505952E
:10337000069507950895A52829D15248FDF779FAB1
:10338000C0B28DF8240081464E4809308346FDF7CF
:1033900070FAC0B20127DFF82C814B4E8DF8250062
:1033A0004FF47A7A0A2C13D009A9082C4BD0A4F137
:1033B0003000092808D83078095C082904D200EBCD
:1033C000C00202EB08000C547078002850D06DE069
:1033D0007178B9BB317811B1012915D048E0B9F144
:1033E000000F45D0377000952923BD221621662095
:1033F000019502F0B5F8CDE900753E23BD222B21E1
:10340000662002F0ADF8DFE780B335700922594637
:103410002C48FDF74DFA28B1022070702BA000F067
:103420008DF9D1E777702CA000F088F90720ADF86E
:103430001400244906A8FDF7F8F9514605A801F043
:10344000DBFAC1E701E0707840B1757012211D48C8
:10345000FDF7F8FA002000F047F8B5E73078095C8E
:1034600029B100EBC0004144401E0D5400E008B3F8
:103470002022082102A8FDF7DDFA307800EBC00118
:1034800001EB0800FDF7F5F901462A2202A8FDF735
:10349000D1FACDE90057307802ABC0EBC00000EBA9
:1034A000400103226A201A3102F02EF80BB00020EE
:1034B000BDE8F08FAB20ADF8280051460AA8FFF711
:1034C000EFFD81E7FA5A012050040020C3DCC2EB73
:1034D000B2BBD2BBD6C22100C3DCC2EBC9E8D6C3A3
:1034E000B3C9B9A6210000002DE9FC41002001F07C
:1034F00093FE01251423BF2219462846009501F0AA
:10350000C3FE0422002311461046009501F090FEF0
:1035100000953E23602216215F20019502F020F8DD
:10352000002320A202213C20009501F091FF0023FE
:103530001FA218210A20009501F08AFF002319A27A
:103540002B210A20009501F083FF002473266B27AE
:1035500004EB840006EB4002262307EB40001946EB
:10356000009501F091FE641C082CF1DB002404EBB3
:10357000840006EB40023B2307EB40001946009510
:1035800001F082FE641C082CF1DB0020CDE9005024
:103590002923BD221621662001F0E2FF0020BDE8AC
:1035A000FC810000B9DCC0EDD4B1C3DCC2EB00008B
:1035B000C7EBCAE4C8EBD0C2B5C40000092800D3E9
:1035C0000820024901EB001070470000D8080020D5
:1035D0000020704738B5034600200C0ACAB200909C
:1035E000A52C10D14FF47A710A2A0ED0082A0ED0D9
:1035F000752A0ED0642A0ED0313A032A03D8D0B2ED
:10360000187000F0C0F8002038BDAA2004E0AB20FC
:1036100002E0AD2000E0AC20ADF800006846FFF706
:103620003FFDF0E72DE9F84307461D4690460E465C
:103630000020DDF8209001F0EFFD01241423BF22CB
:1036400019462046009401F01FFE29235D221946E9
:103650000120009401F018FE2923BF2219466220A0
:10366000009401F011FE3E235D22194601200094D2
:1036700001F00AFE3E23BF2219466220009401F0A9
:1036800003FE0422002311461046009401F0D0FDF1
:1036900000233A4602215020009401F0D9FE6EB179
:1036A000002322A217210320009401F0D1FE002361
:1036B000324617210F20009401F0CAFEB8F1000F26
:1036C0000DD000231AA22C210320009401F0C0FE8B
:1036D000002342462C210F20009401F0B9FE6DB169
:1036E000002314A217216320009401F0B1FE0023EF
:1036F0002A4617216F20009401F0AAFEB9F1000FAD
:103700000DD000230CA22C216320009401F0A0FE18
:1037100000234A462C216F20009401F099FE0020DE
:1037200000F031F80020BDE8F8830000310000000F
:103730003200000033000000340000007CB501249A
:103740000025CDE90054064636239D221B21222068
:1037500001F006FF36239D221B212220CDE90045E2
:1037600001F0FEFE33239A221E212520CDE90045DB
:1037700001F0F6FE0023324620212820009401F0BB
:1037800067FE00207CBD7CB50024054600942723FD
:103790005D2216210120019401F0E2FE00943C23F9
:1037A0005D222B210120019401F0DAFE00942723F1
:1037B000BE2216216120019401F0D2FE00943C2328
:1037C000BE222B216120019401F0CAFE012065B1C7
:1037D000012D0ED0022D15D0032D12D13C23BE2277
:1037E0002B21CDE90004612009E027235D22162169
:1037F00002E03C235D222B21CDE90004012001F0F1
:10380000AFFE7CBD2723BE221621EAE710B5044691
:103810000420FFF727FA0A484FF47A71047014FB6A
:1038200001F1012242804FF0E020026942F00202E1
:1038300002614161016941F00101016110BD0000B7
:10384000A000002070B5044607F04AF901280CD00A
:10385000094D6888844203D3B4FBF0F005F0CAFE3A
:103860006888B4FBF0F100FB11444FF47A706043B8
:10387000BDE8704000F002B8A000002070B54FF025
:10388000E02500216C69094AAB6912785043AA69A6
:103890009A42FCD002D2A3EB020302E0A4EB0206A0
:1038A0003344194413468142F1D370BDA000002077
:1038B000084910B5CA6A824201D8002010BD00EB49
:1038C000800001EBC00028213030FDF7DDF8012039
:1038D00010BD0000680F002000487047880F0020CE
:1038E0000148006970470000680F00200148C06867
:1038F00070470000680F00200549CA6A824201D85B
:103900000020704700EB800001EBC00030307047B2
:10391000680F00204FF4E0720149024803F062BED4
:10392000680F002000000E0810B54FF4E07208493F
:10393000084803F039FE002809D005490968491CE8
:1039400005D100F009F8BDE81040FFF7E3BF10BD56
:10395000680F002000000E0810B54FF4E0710C480D
:10396000FDF792F80A4801220E218280C280C0E948
:1039700003120A21C1620C2206A11430FDF7ABF834
:1039800003480C22BDE8104004A12030FDF7A3B885
:10399000680F002061646D696E00000034333231BD
:1039A000383736350000000070B50E4601004FF084
:1039B00000000B4C054607D06561A56104F11400B9
:1039C000E561FCF732FF0120002E08D02562044893
:1039D000656231462030A562FCF727FF012070BDEB
:1039E000680F00200149086170470000680F00203F
:1039F0000149C86070470000680F002070B5164686
:103A00000F4A1D46D36A834206D92EB100EB8000CF
:103A100002EBC000026B0AB1002070BD00F130045F
:103A200001202060201DFCF700FF314604F110004A
:103A3000FCF7FBFEE56125620120656270BD0000B8
:103A4000680F0020074810B500231A461946406841
:103A500006F028FDBDE810404FF480710248FCF7E5
:103A6000F1BF000098000020BC13002010B50446F0
:103A700005A000F0EDF908A1204600F089F9002822
:103A800000D0012010BD000041542B434950434C4D
:103A90004F53450D0A0000004F4B000070B588B031
:103AA0000D460646144620216846FCF7EDFF13A09C
:103AB00000F0CEF916A1204600F06AF900281AD0CD
:103AC0002A4614A16846FCF7BBFC13A000F0C0F91D
:103AD000304600F0BDF915A000F0BAF9684600F0D4
:103AE000B7F90AA000F0B4F909A1204600F050F996
:103AF000002800D0012008B070BD000041542B43C5
:103B00004950524543564D4F44453D310D0A000042
:103B10004F4B00002564000041542B43495053543F
:103B20004152543D22544350222C2200222C0000AA
:103B300070B505460C4611A000F08AF913A1204685
:103B400000F026F9040017D011A1FCF75CFE98B133
:103B500011A12046FCF757FE00280CD0001D04469A
:103B60000FA1FCF750FE002805D0021B2146284675
:103B7000FCF7B1FF012070BD002070BD41542B4304
:103B800049505354413F0D0A000000004F4B0000C4
:103B9000434950535441000069703A22000000002C
:103BA0002200000070B505460E4600240FA000F06C
:103BB0004FF911A1304600F0EBF8060013D00FA129
:103BC000FCF721FE78B130462C21401CFCF711FE99
:103BD000002807D0641C032CF6DB401CFCF7FCFD1E
:103BE0002860012070BD002070BD000041542B43AF
:103BF000574A41503F0D0A004F4B000043574A417E
:103C00005000000070B505460C4611A000F020F9E8
:103C100012A1204600F0BCF8040017D010A1FCF758
:103C2000F2FD98B110A12046FCF7EDFD00280CD064
:103C3000801C04460DA1FCF7E6FD002805D0021B00
:103C400021462846FCF747FF012070BD002070BDCB
:103C500041542B43574A41503F0D0A004F4B00003F
:103C600043574A41500000003A2200002200000061
:103C700010B506494FF4E13003F0CCFF03220021D8
:103C8000012006F0D3FB0249486010BD953C0008B6
:103C90009800002038B5124C00254FF4807122881E
:103CA0000A2806D0FF2A15D20E498854521C2280B9
:103CB00014E0012A0ED96946606806F03DFE0098BE
:103CC00060B109494FF080500860BFF34F8FBFF3D8
:103CD0006F8F03E00348FCF7B5FE2580002038BD58
:103CE00098000020BC13002004ED00E0F0B589B07E
:103CF0000D460646144620216846FCF7C5FE2A46B6
:103D000018A16846FCF79CFB17A000F0A1F86846D4
:103D100000F09EF818A000F09BF818A1204600F0D3
:103D200037F8040019D016A1FCF76DFD07463A21BB
:103D30002046FCF75EFD044697B18CB107F10D00FB
:103D4000FCF74AFD854200DD0546611C2A463046E7
:103D5000FCF7F9FD284609B0F0BD4FF0FF30FAE757
:103D60000020F8E72564000041542B434950524598
:103D70004356444154413D000D0A00004F4B0000A2
:103D80002B434950524543564441544100000000E2
:103D90002DE9F35F0646002406F0B0FE054600EB71
:103DA00006084FF4007B59462448FCF74BFEA14619
:103DB0004FF4807A224F3CE004F58070584502D9D8
:103DC000C4F5007000E0504685B200231B4E64220B
:103DD0001946786806F066FBF0B13888854200D94C
:103DE000054630192A461749FCF7ADFD51461548DE
:103DF000FCF728FEA7F80090601984B2B5B10F490E
:103E00002020214401F8010C0C480199FCF7FBFC2F
:103E100020B10A48BDE8FC9F4D46EDE70AA10748DE
:103E2000FCF7F1FC38B9B4F5FF7F04D806F066FE64
:103E300005464545C0D30020ECE70000BC14002037
:103E400098000020BC1300204552524F5200000041
:103E500010B5044602E0641C03F040FF20780028FF
:103E6000F9D110BD70B588B00E4605461446202124
:103E70006846FCF709FE32460FA16846FCF7E0FAF7
:103E80000EA0FFF7E5FF6846FFF7E2FF0EA0FFF781
:103E9000DFFF0EA12046FFF77BFF002809D0284650
:103EA000FFF7D6FF09A12046FFF772FF002800D0D8
:103EB000012008B070BD00002564000041542B4370
:103EC000495053454E443D000D0A00004F4B000041
:103ED00070B504460D4609A0FFF7BAFF3034E0B2D2
:103EE00003F0FCFE08A0FFF7B3FF08A12846FFF788
:103EF0004FFF002800D0012070BD000041542B432B
:103F0000574D4F44453D00000D0A00004F4B000047
:103F100010B5044606A0FFF79BFFFFF793FD21466F
:103F20000120FFF7D5FF002800D0012010BD0000C0
:103F3000415445300D0A000010B5044605A0FFF7B6
:103F400087FF09A12046FFF723FF002800D00120AA
:103F500010BD000041542B43575354415254534D0C
:103F60004152540D0A0000004F4B000010B50446AA
:103F700005A0FFF76DFF09A12046FFF709FF002804
:103F800000D0012010BD000041542B435753544F23
:103F900050534D4152540D0A000000004F4B000099
:103FA00010B503A1FFF7F4FE002800D0012010BDDA
:103FB000736D617274636F6E66696720636F6E6E96
:103FC000656374656400000010B5044602F0CCF926
:103FD00006484FF0010100681CB1BDE8104006F032
:103FE0002DB9BDE8104006F0E9B8000094010020AA
:103FF0000A46014602480023806806F069BB0000BB
:10400000940100208CB000263446ADF80060019683
:104010003746029602F058FA04210022084606F0BC
:1040200005FA604DA86006F0FBF8A846286040F647
:10403000B8394FF47A7AA6250021D8F8000006F0A6
:10404000BDF8C0070BD0642005F0D4FA0420ADF809
:104050000800ADF80A40514602A8FFF7C9FF002347
:10406000524601A9D8F8080006F01CFA01286CD1C4
:10407000BDF80400ADF80040062826D2DFE800F0C5
:10408000252A11360353494603A8039402F074FA13
:1040900006001AD103981E30FCF79EFBADF8000015
:1040A00013E0504605F0A6FABDF806604F462421FD
:1040B00003A8FCF7E9FC33463BA2212103A8FCF747
:1040C000D5F9394603A80AE00646002E53D0FF2E44
:1040D00060D029E0504605F08DFA49463BA002F039
:1040E0006DF908B10228EFD12046EDE7504605F002
:1040F00081FABDF8066041F27C57242103A8FCF741
:10410000C3FC334628A2212103A8FCF7AFF93946A6
:1041100003A802F053F908B10228D5D1394603A803
:1041200002F076F8D0E70126ADF80850FF208DF8B0
:104130000B008DF80A60514602A8FEF7B1FF06F0A9
:10414000DDFC0746642005F055FA002F3FF474AFFC
:1041500006F0D4FCC01BB0F5FA6F7FF66DAFADF87A
:1041600008508DF80B4000278DF80A40514602A8F0
:10417000FEF796FF60E7ADF8085001208DF80B00C0
:10418000BDF800008DF80A00514602A8FEF788FF2E
:104190000027D7E7ADF8085002208DF80B008DF806
:1041A0000A40C8E794010020454445364538303080
:1041B00041323030303030303030303030303030EC
:1041C0003030303025303458000000004646464636
:1041D000464646464646464646464646464646467F
:1041E0004646464646464646464646460000000087
:1041F0001CB5064A0621CDE9001203464FF4806241
:1042000003A1064806F040FC1CBD000098010020F8
:10421000666163655F7461736B00000005400008B0
:10422000062800D30520034900EB800001EB800045
:1042300070470000600800201CB500230C46009366
:104240000A218DF80010010A8DF801108DF8020086
:1042500001938DF803308DF804300521684600F095
:1042600051F830B10448C079052801D220700020EF
:104270001CBDFF201CBD0000540000201CB5002107
:1042800000910191052102468DF80010684600F06A
:1042900039F810B10248C0791CBDFF201CBD0000D8
:1042A000540000201CB50023009304228DF8002048
:1042B000020A8DF801208DF8020001930A468DF85C
:1042C00003308DF804300521684600F01BF810B16A
:1042D0000248C0791CBDFF201CBD00005400002016
:1042E00010B506494FF4964003F006FC0322002166
:1042F000012006F09BF80249086010BDC943000880
:10430000500000202DE9F0410646002490460F465B
:104310002546F52003F06CFC06E0305D03F068FCF8
:10432000305D4540641CE4B2BC42F6D3284603F03D
:104330005FFCF52003F05CFC044842460023006863
:10434000BDE8F041194606F0ADB80000500000206D
:104350001CB5002300930193A8B1C40813D18DF8B4
:104360000000080A8DF801008DF8021001208DF878
:1043700003008DF8043005216846FFF7C3FF10B134
:104380000248C0791CBDFF201CBD00005400002065
:104390001CB5044600200090019009208DF8000013
:1043A0000A4605216846FFF7ADFF40B10549C879C7
:1043B000002803D1B1F8051049BA21801CBDFF20A7
:1043C0001CBD00005400002038B5244C00222146BA
:1043D0006378497A052B3DD2DFE803F003070C1D13
:1043E0002100F52837D1012013E02071A2706072FE
:1043F00002200EE01949A278491D5054A178491CA9
:10440000C9B2A170627A42406272E078814222D3DE
:10441000032060701FE0414061720420F9E7F52835
:1044200000D1A9B100202070627078B10B486946B4
:10443000001F006806F080FA009838B108494FF074
:1044400080500860BFF34F8FBFF36F8F207838BD67
:104450000120E8E76270002038BD00005400002011
:1044600004ED00E01CB504460020009001900C20F3
:104470008DF800000A4605216846FFF743FF48B162
:104480000549C879052804D2B1F8050040BA208052
:1044900000201CBDFF201CBD54000020F8B50646BE
:1044A0000020ADF800000D46304600F01FF800284F
:1044B0000DD12A4631460120FFF74AFF040007D0FC
:1044C000FF2C03D129466846FFF762FF2046F8BD5E
:1044D0002A4631460220FFF73BFF0400F0D12A466E
:1044E00031460320FFF734FF0446E9E738B50546B7
:1044F00000200C468DF800000A4669462846FFF762
:104500009BFE18B921462846FFF7CCFE052800D1AE
:10451000002038BD010004484FF00101006801D0BF
:1045200005F08CBE05F04ABE680100200A4601462F
:1045300002480023806806F0CBB800006801002024
:104540001FB500242746ADF804402546FFF7C8FEF6
:1045500004210022084605F069FF4E4EB06005F0C8
:104560005FFEB14640F6B83A4FF47A7B4FF0A408AC
:1045700030600021D9F8000005F020FE0646C00793
:104580000CD04FF4FA7005F035F80420ADF80000B7
:10459000ADF8027059466846FFF7C8FF00235A4637
:1045A00002A9D9F8080005F07DFF012837D1BDF830
:1045B0000800ADF80470012819D0022811D0032892
:1045C00041D0042817D101A85146ADF80C70FFF76F
:1045D00049FF0446FF280ED1514603A8FFF7D8FE35
:1045E00009E0BDF80A005146FFF780FF02E050469F
:1045F000FFF744FE04466CB3FF2C3AD0FF208DF841
:1046000003008DF8024006F079FA0546ADF8008007
:1046100059466846FEF744FD642004F0EBFF002D88
:10462000A7D006F06BFA401BB0F5FA6FA1D9ADF830
:1046300000808DF8037000258DF802705946684699
:10464000FEF72EFD95E7BDF80A0041F28831FFF72D
:1046500025FFCFE701208DF80300BDF804008DF899
:104660000200ADF8008059466846FEF719FD0025A6
:10467000D2E702208DF803008DF80270F007CBD14D
:10468000ADF8008059466846FEF70AFD06F036FA96
:104690000546C1E7680100201CB5064A0521CDE9A1
:1046A000001203464FF4AF7203A1064806F0ECF97E
:1046B0001CBD00006C0100206670635F7461736B49
:1046C000000000004145000810B50446C0B203F0E8
:1046D00015F9204610BD2DE9FC410E460546012185
:1046E00000240846FEF71AF801210220FEF716F80A
:1046F00001210420FEF712F800270EE0A8888DF8AB
:10470000047000908DF80570A8798DF8070069464F
:104710002868FDF7C8FE641CA4B2B442EED3BDE81D
:10472000FC81417A032202EA41024272C179CB4301
:104730001B0702D0090701D001E001210172017AB3
:104740000A434272084670472DE9FC410F46054670
:1047500001210846FDF7E2FF01210220FDF7DEFFFF
:1047600001210420FDF7DAFF002421E005EBC40657
:104770006946B088009001208DF8040000208DF873
:10478000060002208DF80500B0798DF8070055F875
:104790003400FDF788FEF079B188002855F8340020
:1047A00002D0FDF7D5FE01E0FDF7D0FE641CA4B2F7
:1047B000BC42DBD3BDE8FC8110B586B001210220EC
:1047C000FDF7ACFF01214805FDF7B4FF1C4C0422A6
:1047D00008212046FDF7A3FE042209212046FDF70B
:1047E0009EFE4FF44071049102218DF814108DF853
:1047F000151001208DF8160004A92046FDF753FE80
:104800000020ADF80400ADF808002015ADF80A004E
:104810000001ADF80C004BF6FF710A480A4CADF8E8
:104820000610009069462046FDF7CAFE0121204689
:10483000FDF7A7FE01212046FDF78DFE06B010BD55
:1048400000040240A0860100005400402DE9F0471A
:10485000364F8A4681461C46154601213846FDF7EB
:104860007AFE01213846FDF796FE314EB8463146B4
:104870004046FDF77AFE0028F9D04FEA4907F9B221
:1048800000224046FDF7FBFEDFF8A890404649466F
:10489000FDF76BFE0028F9D051464046FDF7F7FEC4
:1048A000DFF8909009F1020949464046FDF75DFEA8
:1048B0000028F9D001214046FDF76DFEB14646467D
:1048C00049463046FDF751FE0028F9D0F9B20122E1
:1048D0003046FDF7D4FE164F7F1C39463046FDF7B3
:1048E00044FE0028F9D0124F3F37BCB1012C07D14C
:1048F00000213046FDF72FFE01213046FDF755FE21
:1049000039463046FDF731FE0028EED03046FDF73F
:10491000B3FE641E05F8010BE4B2E6E70121304660
:10492000FDF719FE0020BDE8F087000000540040AC
:10493000010003008200070010B5FFF73DFF00F003
:10494000CFFA0121002000F00DFB0121084600F004
:1049500009FBFEF7E9FFFEF7ADFC02F001FC05499B
:104960004FF4E13002F064FFBDE810400249062038
:1049700002F02EBCB53100081171000870B5064672
:104980004FF6FF7500242046FEF7B6FF016831B1EF
:1049900000F110010C223046FBF78AFF28B1641C9D
:1049A000A4B20A2CEFD3284670BD2546FBE770B5AC
:1049B00006464FF6FF7500242046FEF79DFF01686E
:1049C00029B1011D0C223046FBF772FF28B1641C8F
:1049D000A4B20A2CF0D3284670BD2546FBE710B5DB
:1049E000002306E050F82340944340F823405B1C2A
:1049F0009BB28B42F6D310BD0A4601460248002303
:104A0000806805F065BE00008001002090B028217C
:104A10006846FCF739F800242646A1460A940B9410
:104A20000C940D940E9405F0FBFBD44D0022102144
:104A30002860042005F0FAFCA8600020FFF72CFE97
:104A4000002005F0A3F80020FFF7D2FB4FF0010A89
:104A5000CA4800234FF47A720AA9806805F022FD43
:104A6000012815D0002EF3D006F048F8801BB0F5D1
:104A7000FA6FEDD9A320ADF8380000268DF83B6021
:104A80008DF83A604FF47A710EA8FEF709FBDFE764
:104A9000BDF8280000250D280ED2DFE800F00D0734
:104AA0000E325A89B8E90DF2F0EFEE000F220A211A
:104AB0006846FFF794FF0024F8E04FF6FF780BAF4D
:104AC0004646FEF709FF01460C223846FBF7F0FE8A
:104AD00000B90026464503D28DF83BA000260AE027
:104AE00001220A216846FFF77AFFFF208DF83B007C
:104AF00006F004F80646A320ADF838008DF83AA079
:104B000021E00BA8FFF73AFF4FF6FF71884209D268
:104B10005DF82020002642F001024DF820208DF89B
:104B20003BA00AE001220A216846FFF758FFFF2058
:104B30008DF83B0005F0E2FF0646A320ADF83800F3
:104B400000208DF83A004FF47A710EA8FEF7A8FA0B
:104B5000ACE00B984FF6FF7B80B25FEA00084FF0A5
:104B600000070DD03846FEF7C7FE016821B1C169C4
:104B7000414501D1BB4603E07F1CBFB20A2FF1D3F0
:104B80004FF6FF7158468B4505D25DF820206946E7
:104B900042F002025CE00B9810B144F0020485E0A0
:104BA00002220A216846FFF71AFF24F002047DE082
:104BB0000B984FF6FF7B80B25FEA00084FF00007CA
:104BC0000DD03846FEF798FE016821B1016A4145D3
:104BD00001D1BB4603E07F1CBFB20A2FF1D34FF6D1
:104BE000FF7158468B4505D25DF82020694642F09A
:104BF00004022DE00B9810B144F0040456E00422A6
:104C00000A216846FFF7EBFE24F004044EE00B98FF
:104C10004FF6FF7B80B25FEA00084FF000070DD02F
:104C20003846FEF769FE016821B1416A414501D16C
:104C3000BB4603E07F1CBFB20A2FF1D34FF6FF71D2
:104C400058468B4507D25DF82020694642F008029D
:104C500041F82B202AE00B9810B144F0080425E01D
:104C600008220A216846FFF7BAFE24F008041DE076
:104C70000BA943A0FEF798FE17E032E011E00EE02A
:104C8000FFE70B9818B90C9808B9CDF82CA00B9831
:104C9000FEF7AEFE0C98FEF7A5FE554606E0012590
:104CA00004E00B98C0B2FEF703FE0546334800212E
:104CB000006805F083FAC00759D0FEF717FE0746D3
:104CC000FEF70EFE80464FF0FF0C214663460020A3
:104CD000EE465EF820209346114338EA0B0203D0DB
:104CE00009E0FEF739FED8E7C3B217B11BEA070F98
:104CF00001D000F0FF0C401C0A28EAD3FF2B0AD297
:104D0000634508D1AA20ADF8380000208DF83B009B
:104D10008DF83A300EE038EA010817D10FB1394268
:104D200014D0AA20ADF83800FF208DF83B000020F9
:104D30008DF83A004FF47A710EA8FEF7B1F90F2200
:104D40000A216846FFF74BFE00242146B9F1000F07
:104D500001D031B10BE051B14FF0010900214846BB
:104D600003E04FF000094946484602F049F90DB109
:104D7000FEF7D0FD322004F03DFC69E68001002002
:104D800061646D696E0000001CB5064A0721CDE91B
:104D9000001203464FF4007203A1074805F074FEA9
:104DA0001CBD0000840100206964656E7469667929
:104DB0005F7461736B0000000D4A000870B5094E06
:104DC000002505EB450006EB8004A1882068FDF76F
:104DD000B6FBE1796D1C40EA4100E071072DF0DB84
:104DE00070BD000028130020034900EB400001EBD8
:104DF0008000C079704700002813002070B52A4851
:104E0000284EFF2340C0711520F8041B002100F834
:104E1000021C00F8013C012200F8082B234C00F88A
:104E2000071C40F8044C150205808170C1700171A7
:104E300041711F4D856082818173C3730274417417
:104E4000446102838176C376027741770662082641
:104E5000868480F8261080F8273080F8282080F893
:104E60002910C4620224048680F8321080F833309E
:104E700080F8342080F8351014038563848780F827
:104E80003E1080F83F3080F8402080F84110072124
:104E90000548FFF720FCBDE8704006494FF4FA6072
:104EA00002F092BC000802402813002000000240DB
:104EB00000040240BD4D0008034900EB400001EB37
:104EC0008000407A7047000028130020034900EB5F
:104ED000400001EB8000FFF724BC000028130020F5
:104EE000F0B41D481B4D04260560868001218171A8
:104EF0000022C271194B2024836084818173C273A4
:104F0000174C8027046187828175C2750F02836107
:104F100087838177C27705620225858480F8261011
:104F200080F827208362868580F82E1080F82F2055
:104F300003634B03838680F8361080F83720CB0359
:104F40008463838780F83E1080F83F20F0BC0821FE
:104F5000FFF7FABB000402407C1300200008024067
:104F60000000024008280BD2064B002903EBC002C8
:104F700053F83000918801D0FDF7EABAFDF7E6BAA0
:104F8000704700007C13002038B5FFF737FF0A4850
:104F9000012300901A46FA2108A005F08DFF0B4C62
:104FA000A06005F0ABFD0246002003460090012101
:104FB000A06805F0F5FF38BDD14F00086B65795F3B
:104FC000696E745F6C6F6F7000000000A0010020BC
:104FD00070B50120FFF77AFF0420FFF777FF01206B
:104FE000FFF76AFFA125204C4FF47A76012808D1FB
:104FF0002580E070FFF760FFA07031462046FEF785
:105000004FF80420FFF758FF022809D1258004201B
:10501000E070FFF751FFA07031461348FEF740F8EB
:105020000520FFF7E1FE1049C043A1F1020140074E
:10503000087814D00A2816D2401CC0B208700A287A
:1050400011D10020087025800520E070FFF734FFA3
:10505000A0703146BDE870400348FEF721B8012832
:1050600001D9801E087070BDA20100207CB501210D
:105070000220FDF753FBF820012400908DF8044036
:1050800000258DF8065003208DF805008DF80740A7
:1050900069461D48FDF707FA1C4EC6F89C520A20C7
:1050A00006F52776FEF7CEFB3460C820FEF7CAFB74
:1050B000E22000F02DF8C820FEF7C4FB2F2000F0FE
:1050C00027F8C820FEF7BEFBA02000F021F88120C1
:1050D00000F01EF8652000F01BF8EB2000F018F837
:1050E000C42000F015F8AF2000F012F8402000F0C6
:1050F0000FF8002000F074FA002000F08DF8BDE8F1
:105100007C4000F027B800000004024000804042CC
:10511000024A0021C2F8901200F002B8008040421A
:1051200030B50B4A00210B46C2F898120124C2F890
:105130008C32C509C2F89452C2F88C424006491C10
:10514000000EC9B20829F2D3C2F8984230BD00005F
:10515000008040422DE9F0470025DFF84C90DFF851
:105160004C804FF0100A012705F1B000C0B2FFF7E4
:10517000CFFF5046FFF7CCFF0020FFF7C9FF05EB3C
:105180004500002409EB8016305DC8F89072FFF7E7
:10519000C7FF641CE4B2C02CF6D36D1CEDB2082D21
:1051A000E2D3BDE8F087000068090020008040429B
:1051B0002DE9FF4F81B08246DDF840B00E9E1746C4
:1051C000500700D0012000EBE70000F0FF090025A8
:1051D0004FF080081AE0029800242844009011E063
:1051E00006EBE40104F007030A7828FA03F10AEB5E
:1051F00004000A4201D05A4600E00F9A009900F0DC
:1052000007FA641CBC42EBDB4E446D1C04988542DB
:10521000E1DB05B0BDE8F08F4FF4C06118B1FF22AB
:105220000248FBF707BC0148FBF70CBC68090020EB
:105230002DE9FE4F82461D4689461046DDF8308036
:10524000FEF7BCF904464068410700D0012101EB9C
:10525000E000217A4143CFB2384601F025FE0646F0
:105260003A463146E06802F09FF9CDE90065CDF895
:105270000880D4E9012349465046FFF799FF30469C
:10528000BDE8FE4F04F0DCB82DE9FC4F06461B4894
:105290000D46994692461946C0E90023971B00D552
:1052A0007F42481B00D5404280464FF0FF305645B4
:1052B00001DA012100E0014601914D4500DA0120AB
:1052C000A7EB0804C8F1000B0090294630460B9A62
:1052D00000F09EF9564501D14D450CD0600058456F
:1052E00003DD0199A4EB08040E44B842EDDA0098FE
:1052F0003C440544E9E7BDE8FC8F00008000002045
:1053000008B50B4600920246024803C8FFF7BCFFEF
:1053100008BD0000800000202DE9FF4F83B08246C9
:105320001C461046DDF844B0FEF77AFF0546007BC8
:10533000201AC6B26868410700D0012101EBE000E5
:10534000297A00F0FF0801FB08F1CCB2204601F0F9
:10535000ABFD0090286916FB04002246009902F07C
:1053600023F900264FF08009009F1BE004980024D9
:105370003044019011E007EBE40104F007030A78E0
:1053800029FA03F10AEB04000A4201D05A4600E070
:10539000109A019900F03CF9641C6868A042EADCAC
:1053A0004744761CA868B042E0DC009807B0BDE82E
:1053B000F04F04F045B800002DE9FF4F81B0804662
:1053C000110AD0B2DDF838A09946A1283BD3A12913
:1053D00039D3A138C0B2A139C0EB0012C9B202EB77
:1053E000401001EB40004401202001F05DFD01462A
:1053F000009016482022204402F0D6F80025009E96
:1054000080270298002400EB050B06EBE40104F072
:105410000702097827FA02F208EB0400114201D0D2
:10542000524600E04A46594600F0F2F8641C102C3F
:10543000EBDB6D1CB61C102DE3DB009805B0BDE85E
:10544000F04F03F0FDBF05B0BDE8F08F0000040889
:105450002DE9FC479A4617460E46814615780446C4
:10546000DDF8288029E02B4617F8015F0D2B0CD0C2
:105470000A2B0CD0802B0CD8CDE900A80322F11CFC
:105480002046FFF749FF0A3413E04C4615E010367A
:1054900013E0A12B0DD9A12D0BD943EA05225346C8
:1054A00031462046CDF80080FFF786FF17F8015FF0
:1054B0001034B02C01DD0024E9E7002DD3D1BDE884
:1054C000FC8700002DE9F0438BB08846DDE91254DB
:1054D00081461F461646202102A8FBF7D5FA3A4618
:1054E00008A102A8FAF7ACFF002807DBCDE90054B9
:1054F00002AB32464146484600F006F80BB0BDE824
:10550000F0830000256400002DE9FC5F8046DDE9A2
:105510000CA904461E4693460D461046FEF780FE33
:10552000074614E0761C0D2816D00A2816D0CDE9BF
:1055300000A9C3B25A4629462046FFF7EDFE786817
:105540000444C0F1C001A14201DA002405443078CE
:105550000028E7D1BDE8FC9F4446F8E7B868F5E7C6
:105560002DE9F8410446DDE907501F4616468846F6
:10557000F8B1B44205D120460095FFF785FEBDE89D
:10558000F88108DB12E022463B4641461046009572
:10559000FFF77AFE641CB442F5DDF0E732463B4685
:1055A000414610460095FFF76FFE761CA642F5DDDA
:1055B000E5E70B4620460095FFF766FE2A4639468A
:1055C0003046FFF79DFE2A4639462046FFF798FEF3
:1055D0002A4641462046BDE8F841FFF791BE00004B
:1055E0000A49002248B10123012809D002280AD023
:1055F000032801D18B60CB6070478A60CA60704716
:10560000C1E902327047C1E90223704780000020DF
:10561000154B10B59C680CB1C0F1BF00DC680CB133
:10562000C1F13F01C028C3E900011BD2002919DBE9
:10563000402917DA01F007040123A340002A4FEAAA
:10564000E17201EB5271094C4FEAE10101EB4101BA
:1056500004EB81110844DBB2017801D0194300E06A
:105660009943017010BD00008000002068090020EF
:1056700070B586B000220B0AC8B200920192029265
:1056800003920492A52B0BD1214C0A280BD0082899
:1056900029D03138032803D8C0B22070FEF773F840
:1056A00006B0002070BD1A4D20786D1C01262B5CC1
:1056B00006FA00F14BB1012B0CD02A54E2688A4360
:1056C000E260295C00F0F4F8EAE72E54A268114386
:1056D000A160F6E702222A54E2680A43E260A26867
:1056E0008A43A260EDE70920ADF80400A0680290AB
:1056F000E0684FF47A740390214601A8FFF77CF923
:10570000AB20ADF8000021466846FDF7C9FCC7E7AD
:10571000540400202DE9FC41FEF7E8F8DFF85C8135
:105720004546C8F80800FEF7DBF8E86054A0009092
:1057300055A357A258A15AA0FDF774FF01240023D6
:105740005AA2022114200094FFF782FE287B4FF01A
:105750000207C0074FF0000608F1010509D00094C8
:1057600022234E221C2148200194FFF7F9FE2F70BE
:1057700015E098F80800C00708D0002303221C2178
:1057800048200094FFF754FD2C7008E0CDE9004656
:1057900022234E221C214820FFF7E2FE2E7098F8AB
:1057A0000C00800709D5009437234E223121482070
:1057B0000194FFF7D5FE6F7015E098F80800800798
:1057C00008D500230322312148200094FFF730FD43
:1057D0006C7008E0CDE9004637234E223121482085
:1057E000FFF7BEFE6E7098F80C00400709D50094D4
:1057F0002223AE221C21A8200194FFF7B1FEAF7036
:1058000015E098F80800400708D5002303221C2162
:10581000A8200094FFF70CFDAC7008E0CDE900462D
:105820002223AE221C21A820FFF79AFEAE7098F822
:105830000C10090709D500943723AE223121A82086
:105840000194FFF78DFEEF7015E098F8080000074F
:1058500008D5002303223121A8200094FFF7E8FC9B
:10586000EC7008E0CDE900463723AE223121A820B4
:10587000FFF776FEEE700020BDE8FC8154040020A6
:10588000C8CBC1B300000000D6B8BEB2C2F600005B
:10589000D6B8CEC600000000C3DCC2EB000000009A
:1058A000BFAACBF8C4A3CABD00000000312F31004D
:1058B0001CB50023012280B1012823D0022836D054
:1058C000032816D1022944D0012945D0CDE9003260
:1058D0003623AD223221A92009E002290AD001296C
:1058E0000BD0CDE9003221234D221D214920FFF7A5
:1058F00037FE1CBD00920192F5E7009200230322BF
:105900001C2110E0022907D0012908D0CDE900327E
:1059100036234D223221E9E700920192F8E7009206
:105920000023032231214820FFF782FC1CBD0229FD
:1059300007D0012908D0CDE900322123AD221D2155
:10594000C9E700920192F8E70092002303221C218C
:1059500006E000920192BBE700920023032231216E
:10596000A820E1E71CB54FF44070FCF7C7FEA82063
:10597000FDF74CFFFEF7E0FF03F0B0FD0749032001
:10598000CDE9000100234FF4807205A1074805F01E
:105990007BF803F08FFF00201CBD000000000020FA
:1059A00073746172745F7461736B0000B17400088A
:1059B000F0B587B04FF00004080ACDB2029403940A
:1059C00004944FF00101059407D006264FF47A772E
:1059D00001280BD0FF2822D113E0CDE900413A2362
:1059E00058222D214920FFF7BBFD18E0002300912C
:1059F0001A462D214920FFF71BFCADF808600395DE
:105A000009E00091002301222D214920FFF710FC1D
:105A1000ADF808600394394602A8FEF7EDFF07B021
:105A20000020F0BDF0B587B04FF00004080ACDB2F9
:105A30000294039404944FF00101059407D00426C6
:105A40004FF47A7701280BD0FF2822D113E0CDE95B
:105A500000411023582203214920FFF781FD18E05F
:105A6000002300911A4603214920FFF7E1FBADF81E
:105A70000860039509E000910023012203214920D9
:105A8000FFF7D6FBADF808600394394602A8FEF78D
:105A9000B3FF07B00020F0BD2DE9FC4101F04AFB47
:105AA0000A25B0FBF5F301260027CDE90076044670
:105AB000642801D37D2000E0822000220621FFF728
:105AC00001FDB4FBF5F005FB1043CDE900760022A3
:105AD00006218C20FFF7F6FC04F0BCF8BDE8FC4181
