:020000040800F2
:10000000D870012049030008D51200089511000896
:10001000D3120008B30E00081122000800000000EF
:100020000000000000000000000000009102000835
:10003000B50E000800000000E5020008351C0008AD
:10004000212200086303000863030008E118000888
:10005000630300086303000863030008E10E00085F
:1000600063030008630300086303000863030008D8
:1000700063030008630300086303000863030008C8
:1000800063030008630300086303000863030008B8
:1000900063030008630300086303000863030008A8
:1000A0006303000863030008630300086303000898
:1000B00063030008A51C000863030008630300082D
:1000C0006303000863030008630300086303000878
:1000D000F1190008491F00087D1F0008B11F000822
:1000E000B90E0008511500086303000863030008F7
:1000F0006303000863030008630300086303000848
:100100006303000863030008630300086303000837
:10011000E11E0008151F00086303000863030008C0
:100120006303000863030008630300086303000817
:100130006303000863030008630300086303000807
:1001400063030008630300086303000863030008F7
:10015000630300086303000863030008E51F000849
:1001600063030008630300086303000863030008D7
:1001700063030008630300086303000863030008C7
:10018000630300086303000800F002F800F070F851
:100190000AA090E8000C82448344AAF10107DA45E2
:1001A00001D100F065F8AFF2090EBAE80F0013F0C4
:1001B000010F18BFFB1A43F00103184714C70000D2
:1001C00034C700000A444FF0000C10F8013B13F054
:1001D000070408BF10F8014B1D1108BF10F8015BA0
:1001E000641E05D010F8016B641E01F8016BF9D193
:1001F00013F0080F1EBF10F8014BAD1C0C1B09D1EA
:100200006D1E58BF01F801CBFAD505E014F8016B5B
:1002100001F8016B6D1EF9D59142D6D370470000ED
:100220000023002400250026103A28BF78C1FBD8FF
:10023000520728BF30C148BF0B607047642900F0E7
:100240003381782900F06C81732900F0BC84002090
:1002500070471FB50CF0FCFA00F008FD0400002008
:1002600000210CF009F8401C60601FBD10B510BDE6
:1002700000F053FD1146FFF7ECFF05F01BFA00F00C
:100280007FFD03B4FFF7F2FF03BC01F0E0FF0000C5
:100290002A4B19680868B0E8F04F80F30988BFF36B
:1002A0006F8F4FF0000080F311887047000000004E
:1002B00006480068006880F3088862B661B6BFF33C
:1002C0004F8FBFF36F8F00DF00BF00BF08ED00E06E
:1002D000DFF80C00016841F470010160704700BF55
:1002E00088ED00E0EFF30980BFF36F8F134B1A68BE
:1002F0001EF0100F08BF20ED108A20E9F04F1060AB
:1003000008B44FF0500080F31188BFF34F8FBFF354
:100310006F8F0AF05FF94FF0000080F3118808BC7E
:1003200019680868B0E8F04F1EF0100F08BFB0EC75
:10033000108A80F30988BFF36F8F70470401002093
:10034000EFF30580704700000948804709480047DF
:10035000FEE7FEE7FEE7FEE7FEE7FEE7FEE7FEE775
:10036000FEE7FEE704480549054A064B70470000D2
:10037000491C000889010008D8600120D8700120BC
:10038000D86C0120D86C0120704700000FB40449DC
:1003900010B503AA029800F01BFC10BC5DF814FB1A
:1003A000C40000200FB41CB5084B06AA7B44694664
:1003B0000090059800F0D5FB04460020694600F047
:1003C000E3FB20461CBC5DF814FB0000D9070000CD
:1003D0000FB47CB50C0009AA009001D02044401E47
:1003E000084B7B4469460190089800F0BAFB05462B
:1003F0001CB10020694600F0C7FB28467CBC5DF8B4
:1004000014FB0000AD07000070B504468569006864
:10041000C10601D5302600E02026C00707D070BDF8
:10042000D4E9012130469047206A401C20626D1EAD
:10043000F6D570BD70B5044685690078C00707D150
:1004400070BDD4E9012120209047206A401C206221
:100450006D1EF6D570BD70B50C460546012A05D057
:100460002878800600D5EA69002302E0012305E030
:100470005B1C934202D2E05C0028F9D1A869E6181F
:10048000C01AA861286A184428622846FFF7BCFFF2
:1004900004E0D5E9012114F8010B9047B442F8D3E8
:1004A0002846FFF7C7FF70BD2DE9F041064600243E
:1004B00010687529314616A510D0AFF300800028CA
:1004C00002DA404213A507E031688A0701D512A578
:1004D00002E0490704D511A5012401E0AFF3008033
:1004E00000210A2206F1240709E0B0FBF2FCB0FB70
:1004F000F2F302FB1C00303078541846491C0028E7
:10050000F3D123462A463046BDE8F04100F0CABA8E
:10051000000000002D0000002B0000002000000063
:1005200070B504460D4621461068AFF3008021885F
:10053000090502D50F4A7A4402E00E4A7A440E3287
:10054000002104F1240305E000F00F060009965D88
:100550005E54491C0028F7D120780023000704D5F9
:10056000702D02D009B1022311322046BDE870403F
:1005700000F098BA5AC300002DE9F05F894604469E
:100580004FF0000ADFF824B1FB44C0F820A0204659
:10059000E168884700287DD0252806D0D4E90121CC
:1005A0009047206A401C2062F1E700255F46204604
:1005B000E16888472028064607DB312E05D2B819A6
:1005C00010F8200C08B10543F1E7A80701D525F084
:1005D0000405C4F81CA00027C4F818A02A2E09D0CE
:1005E000304601F02DFE38B304EB8708303EC8F8E2
:1005F000186019E059F8041B204604EB870291614A
:10060000E1688847012F064618D1E069002820DA02
:1006100025F020051DE0D8F8180000EB800006EB5F
:1006200040003038C8F818002046E1688847064680
:1006300001F006FE0028EED1012F0AD02E2E08D19F
:100640002046E16888477F1C0646022F45F02005BA
:10065000C4DBA069002803DA404245F00105A0612F
:10066000E80701D025F01005A6B1A6F14100192830
:1006700002D8203645F400654A46314620462560BA
:100680004D46FFF7DBFD60B1012807D0ED1D25F0D9
:10069000070000E007E000F1080978E705F1040928
:1006A00075E730467AE7206ABDE8F09F30C3000066
:1006B00070B5064600F0F2F90468054630460A2295
:1006C000002100F097FA2C6070BD401ECAB210F8ED
:1006D000011F8A4202D00029F9D10020704730B5AD
:1006E00005460B462A4613F8014B12F8010B08B1D8
:1006F000A042F8D01CB1002802D06D1CF1E72846BA
:1007000030BD40EA0103024630B59B0710D14FF0DF
:10071000013400E008C208C91D1B9D4315EAC41F2F
:10072000F8D013F0FF0102F8011B0DD01B0AF8E707
:1007300011F8013B002B02F8013B05D011F8013BF9
:10074000002B02F8013BF3D130BD10B5431C02E091
:1007500010F8011B71B18107FAD14FF0013202C8C4
:100760008C1A8C4314EAC211F9D0C01A0A0603D0BD
:10077000C01E10BDC01A10BD0A0401D0801E10BDDD
:100780000902FCD0401E10BD40EA010370B59B0772
:100790002ED14FF00136042A2AD308C810C99D1B58
:1007A0009D43121F15EAC61517D0D8B2E1B2401A00
:1007B00050EA056110D198B2A1B2401A50EA054141
:1007C0000AD123F07F4024F07F41401A50EA0521EE
:1007D00002D1180EA0EB146070BDA342DBD018BA92
:1007E00021BA884201D9012070BD4FF0FF3070BDA1
:1007F0000AB9002070BD10F8013B11F8014B63B13C
:10080000A3420AD1521E08D010F8013B11F8014B47
:100810001BB1A34201D1521EEDD1181B70BD032A9A
:1008200040F2308010F0030C00F0158011F8013B0D
:10083000BCF1020F624498BF11F801CB00F8013BF4
:1008400038BF11F8013BA2F1040298BF00F801CBB8
:1008500038BF00F8013B11F0030300F02580083A8F
:10086000C0F0088051F8043B083A51F804CBA0E8E6
:100870000810F5E7121D5CBF51F8043B40F8043B3B
:10088000AFF30080D20724BF11F8013B11F801CB70
:1008900048BF11F8012B24BF00F8013B00F801CB41
:1008A00048BF00F8012B704710B5203AC0F00B800C
:1008B000B1E81850203AA0E81850B1E81850A0E864
:1008C0001850BFF4F5AF5FEA027C24BFB1E81850BE
:1008D000A0E8185044BF18C918C0BDE810405FEA2E
:1008E000827C24BF51F8043B40F8043B08BF7047AA
:1008F000D20728BF31F8023B48BF11F8012B28BFAF
:1009000020F8023B48BF00F8012B704702F0FF03BC
:1009100043EA032242EA024200F002B84FF000022A
:100920000429C0F0128010F0030C00F01B80CCF101
:10093000040CBCF1020F18BF00F8012BA8BF20F86F
:10094000022BA1EB0C0100F00DB85FEAC17C24BFC3
:1009500000F8012B00F8012B48BF00F8012B70476D
:100960004FF0000200B5134694469646203922BF48
:10097000A0E80C50A0E80C50B1F12001BFF4F7AF93
:10098000090728BFA0E80C5048BF0CC05DF804EB75
:10099000890028BF40F8042B08BF704748BF20F8E3
:1009A000022B11F0804F18BF00F8012B704710B5D3
:1009B000044610F0030F08BF11F0030F40F015803C
:1009C0004FF0013E121FC0F20E8051F8043BA3EB22
:1009D0000E0C2CEA030C1CEACE1C08BF40F8043BAA
:1009E000F0D0A1F1040102F10402521E08DB11F85B
:1009F000013B002B00F8013BF7D11146FFF78EFFBA
:100A0000204610BD4FF0013C50F8042B51F8043B38
:100A10009A4221D1A2EB0C03934313EACC1317D1D2
:100A200050F8042B51F8043B9A4215D1A2EB0C0369
:100A3000934313EACC130BD150F8042B51F8043B29
:100A40009A4209D1A2EB0C03934313EACC13DBD0F7
:100A50004FF00000704700BFD01A01BAB1FA81F11F
:100A600001F0180122FA01F0CB40C1F12001DBB204
:100A7000C0B2C01A2CFA01F3D11A914311EAC31182
:100A8000E6D17047704770477047704710B500F067
:100A9000EDF8001D10BD00BFE1B700000048704731
:100AA000786001202DE9F0470D46994692460446AC
:100AB00000F124080168880604D5E06921F01001DE
:100AC000216000E00120A84201DD471B00E0002773
:100AD000A1697A1902EB0900081AA0612078C00602
:100AE00002D42046FFF790FC002608E0D4E901215B
:100AF0001AF806009047206A401C761C20624E457A
:100B0000F4DB2078C0060AD52046FFF77DFC06E01E
:100B1000D4E9012130209047206A401C2062381E11
:100B2000A7F10107F4DC07E0D4E9012118F805007A
:100B30009047206A401C2062281EA5F10105F3DCC5
:100B40002046FFF777FC2078000602D50220BDE89A
:100B5000F0870120FBE7000001694A1C0261087868
:100B6000704700B58FB0CDE90131002105910549ED
:100B70007944CDE9031011466846FFF7FDFC0FB03C
:100B800000BD0000E5FFFFFF0A6802F8010B0A60E4
:100B90007047D1E900239A4202D2531C0B601070B7
:100BA000704710B5436913B1AFF3008001E0FFF760
:100BB00052FC012010BD127800F124010A700022BD
:100BC0004A700122EDE711684FF0FF32E9E70000BB
:100BD000074B70B50D467B44FFF7C3FF044628461C
:100BE00000F097F810B14FF0FF3070BD204670BD97
:100BF000B33600002DE9F04791460F468046044683
:100C0000002614F8015B2DB1FFF740FF0068405D3E
:100C1000C007F6D12B2D02D02D2D18D0641E4A46C8
:100C20003946204600F026F827B13968A14201D1A3
:100C3000C7F800804FF0020471050BD54042002830
:100C400003DDFFF72BFF0460A007BDE8F08746F443
:100C50008066E4E70028F8DAFFF720FF04606FF011
:100C60000040F2E700487047786001200048704774
:100C7000986001202DE9F05F824615468B460027DB
:100C80000AF10104B9460078302801D09DB113E083
:100C900014F8010B0127782803D0582801D045B15A
:100CA0000AE00DB1102D07D1002714F8010B102513
:100CB00002E0082500E00A250026B0460EE005FB0C
:100CC000080005FB06F101271FFA80F801EB10462A
:100CD000B6F5803F00D3B94614F8010B294600F061
:100CE00041F80028EBDABBF1000F05D00FB1641E0C
:100CF00000E05446CBF80040B9F1000F06D0FFF7F2
:100D0000CDFE02210160C81EBDE8F09F48EA064002
:100D1000FAE7007B00F0800070477546FFF7A2FFFE
:100D2000AE4605006946534620F00700854618B0D8
:100D300020B5FFF717FBBDE820404FF000064FF04D
:100D400000074FF000084FF0000B21F00701AC4600
:100D5000ACE8C009ACE8C009ACE8C009ACE8C0091F
:100D60008D4670473A2800D2303820F02002412AC0
:100D700001D3A2F13700884201D34FF0FF30704712
:100D800010B50446AFF300802046BDE81040FFF7E1
:100D900078BA0029816802D041F0010101E021F018
:100DA0000101816070470000084B10B5D3F804239F
:100DB00007490A40D0E900142143D0E90240044326
:100DC00021431143C3F8041310BD0000002001406B
:100DD000E030FCFFC06C80B2704702460020126811
:100DE0000A4200D00120704730B542680F4B0C79A1
:100DF0001A400B6842EA04221343436082680C4B9A
:100E00004D791A40D1E9034323438C6844EA4504F1
:100E1000234313438360C26A097D22F47002491E92
:100E2000C9B242EA0151C16230BD0000FFFEFFFCC1
:100E3000FDF7FFC070B5072609290AD9C568A1F1D9
:100E40000A0404EB4404A640B543A3401D43C56017
:100E500007E0056901EB4104A640B543A3401D43EB
:100E600005611F23072A09D2446B521E02EB82023E
:100E700093409C4391400C43446370BD0D2A09D2BA
:100E8000046BD21F02EB820293409C4391400C43BF
:100E9000046370BDC46A0D3A02EB820293409C4326
:100EA00091400C43C46270BD816841F08041816013
:100EB0007047FEE77047000010B54FF4805420469D
:100EC00000F026F8002808D00448016801B18847DE
:100ED0002046BDE8104000F015B810BDEC00002021
:100EE00010B5022000F014F8002808D0044840682B
:100EF00000B18047BDE81040022000F003B810BDEB
:100F0000EC0000200149086070470000143C0140DB
:100F1000034A0146002012680A4200D001207047AF
:100F2000143C014030B51A4A8379016853B3136801
:100F30008B431360111D0B680468A3430B60017998
:100F400011440B68046823430B60114B0833196884
:100F50000468A14319601C1D21680568A94321602C
:100F60004179102905D011440A68006802430A60DB
:100F700030BD196802681143196021680068014397
:100F8000216030BD0079104402688A43026030BDA0
:100F9000003C014005490028086802D040F4806008
:100FA00001E020F48060086070470000003C0240CF
:100FB00070B50646002529B1012927D0022928D07D
:100FC0004FF4407500F080F809281ED1124C2068BB
:100FD00020F440702060206828432060206820F0C2
:100FE000F8002060206846F0020108432060206875
:100FF00040F48030206000F067F8216821F00201A1
:101000002160216821F0F801216070BD4FF48075E6
:10101000D8E74FF40075D5E7103C02400D49092090
:101020000A68D20301D5012070470A68D20601D5AB
:10103000062070470A68D20501D5022070470A6869
:1010400012F0EF0F01D00720704709688907FBD520
:10105000082070470C3C02400248016841F0004102
:1010600001607047103C024070B50D46064600F026
:101070002BF8092813D10A4C206820F44070206016
:10108000206840F400702060206840F0010020607B
:10109000356000F019F8216821F00101216070BD70
:1010A000103C024005480068002805DA034804495E
:1010B0000C3801600349016070470000103C024099
:1010C00023016745AB89EFCD08B509208DF80000F5
:1010D000FFF7A4FF8DF800009DF800000128F7D06D
:1010E0009DF8000008BDF0B5002201274FF0030C69
:1010F0000B6807FA02F52B40AB422CD1066853006F
:101100000CFA03F4A64306600E79D0F800E09E4086
:1011100046EA0E0606600E79012E01D0022E12D18B
:101120008668A64386604E79D0F808E09E4046EA7D
:101130000E0686604668AE43466045688E799640E6
:10114000B6B235434560C568A543C560CC799C40BF
:10115000C3681C43C460521C102AC9D3F0BD4B079E
:10116000DB0E9A40C90810B500EB8100016A0F241C
:101170009C40A1430162016A1143016210BD024615
:10118000002012690A4200D0012070474183704755
:1011900001837047FEE70029018802D041F4806195
:1011A00001E021F4806101807047034600209A8AA3
:1011B0001B8B42EA034222F07F42914300D101207F
:1011C00070470029018802D041F0010101E021F0BF
:1011D0000101018070470029018802D041F480712B
:1011E00001E021F48071018070470029018802D05C
:1011F00041F4007101E021F40071018070470000AA
:101200007FB5044680880D4620F03F06684600F012
:1012100011F927490298B0FBF1F189B20E43A6807B
:10122000228822F001022280224B2A689A421BD88F
:101230005200B0FBF2F080B2042800D20420491C16
:101240002184A083208840F00100208020884FF670
:10125000F5310840A9886A89114301432180A88992
:101260002989084320817FBDEB88A3F53F46FF3ED7
:101270000BD002EBC20303EB0212B0FBF2F080B220
:1012800040F48040020506D007E002EB4202B0FBCA
:10129000F2F080B2F6E740F001004FF4967251434D
:1012A0004FF47A72B1FBF2F140F40040C7E700005E
:1012B00040420F00A0860100008AC0B2704712B100
:1012C00041F0010101E001F0FE010182704701825D
:1012D0007047FEE77047000030B50F23C2780178F1
:1012E0000125FAB1144A126801F1E02102F4E0622A
:1012F000C2F5E062C2F30722C2F10404D34042788F
:10130000A24084781C401443220181F80024007814
:1013100000F01F018D404009800000F1E020C0F87E
:10132000005130BD01F01F0085404809800000F1E8
:10133000E020C0F8805130BD0CED00E002490843C8
:1013400002490860704700000000FA050CED00E05B
:10135000014908627047000000000E4202490A6815
:1013600042EA800008607047007000400B4B10B5E7
:101370001A6840F60344A24302431A600848026810
:1013800042F004020260012905D020BF016821F06B
:101390000401016010BD30BFF8E70000007000409C
:1013A00010ED00E0044A0029116801D0014300E07B
:1013B000814311607047000030380240044A002920
:1013C000116801D0014300E08143116070470000C3
:1013D00010380240044A0029116801D0014300E09E
:1013E000814311607047000040380240044A0029E0
:1013F000116801D0014300E0814311607047000093
:1014000020380240044A0029116801D0014300E05D
:10141000814311607047000044380240044A0029AB
:10142000116801D0014300E0814311607047000062
:101430002438024070B5204B1968204C11F00C0183
:1014400004D06610042903D0082903D004601BE0EF
:10145000066019E0184A121F1168C1F3805511681F
:1014600001F03F0115B1B6FBF1F101E0B4FBF1F180
:1014700014681268C4F388146143C2F30142521C19
:101480005200B1FBF2F1016019680F2202EA11115A
:101490000B4A545C0168E14041601C68072505EA7D
:1014A0009424145D21FA04F484601B6805EA533324
:1014B000D25CD140C16070BD083802400024F40005
:1014C000F400002002460020510901290BD0022916
:1014D0000CD00849096802F01F02012393400B4217
:1014E00000D00120704703497439F3E70149091F0F
:1014F000F0E7000074380240054900220A700A70C3
:10150000012802D0042801D105200870704700008E
:101510007038024001490860704700003C0E4742A5
:10152000C0F30121032907D1074B1968074A21F4A9
:10153000F81102400A431A60034968310A68C0F38F
:101540000B0002430A60704708380240FFFCFF0F9F
:1015500010B54FF48074204600F090F8012806D1B1
:10156000204600F023F80548406800B18047BDE8F8
:1015700010404FF40030FFF7C5BC0000E40000202D
:10158000010901EB810100F00F0000EB4100C0B246
:101590007047002103E0491C0A38C9B2C0B20A28CA
:1015A000F9D2090740EA11607047000080B240F0AC
:1015B0008000C1430348026802F0800211430160C9
:1015C000704700000C280040C0F30F1040F080006E
:1015D000C1430348026802F0800211430160704772
:1015E0000C28004008B50D4900200090086840060E
:1015F00012D44FF0FF3008608B130868009A00F097
:101600004000521C00929A4201D00028F5D0086890
:10161000400601D4002008BD012008BD0C28004070
:101620000248016821F08001016070470C280040E9
:10163000020010B50F480C4601680F4801EA00018E
:101640004FEA1140E070C1F30423637001F03F03DF
:10165000A370C1F3423121700AD1FFF791FFE0700E
:101660006078FFF78DFF6070A078FFF789FFA070AA
:1016700010BD0000042800403FFFFF00044902465F
:1016800000200968034B1940114200D00120704727
:101690000C2800407F3F0100020010B510480C46A6
:1016A0000168104801EA0001C1F305402070C1F350
:1016B0000623637001F07F03A3704FF0400303EA39
:1016C0001141E1700AD1FFF75BFF20706078FFF7EE
:1016D00057FF6070A078FFF753FFA07010BD0000A7
:1016E000002800407F7F7F0030B50E4DCA222A605F
:1016F00053222A600B4C0B4B1C3C1C33002920F05E
:101700000402216800F0040004D01143216019682C
:10171000014303E091432160196881431960FF2070
:10172000286030BD2428004070B5124D04460026C4
:10173000CA20286053202860FFF754FFA8B10D4845
:101740001C38016821F040010160016822681143E2
:1017500001600848A168143801600168A28841EA64
:1017600002410160FFF75CFF0126FF202860304640
:1017700070BD00002428004008B5034901EB80003B
:101780000090006808BD00005028004070B50C466D
:101790000026010060780FD0FFF7F2FEA078FFF777
:1017A000EFFEA078E17840EA0145607821780002F8
:1017B00040EA4130054315E0C10603D520F0100092
:1017C0000A306070E078FFF7E4FE05046078FFF708
:1017D000E0FE45EA0025A078FFF7DBFE0543207810
:1017E00045EA40350D4CCA20206053202060FFF7A9
:1017F000F9FE78B10A480540084820380560FFF72F
:101800000FFF06481C380068800602D400F080F8FC
:1018100000B10126FF202060304670BD2428004022
:101820003FFFFF002DE9F0410C460026234F010049
:101830002078396832464FEA416104D0002930DA15
:10184000FFF79EFE2EE0002900DBE270FFF7A1FE0D
:1018500005046078FFF79DFE45EA0025A078FFF7B4
:1018600098FE0543E07845EA0045144CCA201C3434
:10187000206053202060FFF7B5FE68B11048054096
:101880000E4808380560FFF7CBFE3868800602D4A2
:1018900000F03EF800B10126FF2020603046BDE890
:1018A000F081E270A078217840EA01456078E17823
:1018B000000240EA01400543D7E700000828004045
:1018C0007F7F7F000549CA220A6053220A60034ACB
:1018D000103A1060FF200860704700002428004084
:1018E00010B54FF480642046FFF7C8FE012806D1EA
:1018F0002046FFF75BFE0548006800B18047BDE861
:1019000010404FF48000FFF7FDBA0000E400002013
:1019100018B50020104B0090CA20186053201860A2
:101920000D491839086820F0A00008604FF4003411
:101930000868009A00F02000521C0092A24201D0D8
:101940000028F5D00868800601D5012000E00020BD
:10195000FF21196018BD000024280040084ACA2150
:1019600011605321116006491C390B6823F00703ED
:101970000B600B6803430B60FF2010607047000092
:101980002428004018B50021134B0091CA2119608A
:101990005321196010491C390028086803D040F40D
:1019A0008060086014E020F4806008600A491839FB
:1019B0008C130868009A00F00400521C0092A242A6
:1019C00001D00028F5D00868400701D4002000E0CD
:1019D0000120FF21196018BD2428004008B5034AE2
:1019E00002EB80000090016008BD0000502800401C
:1019F00010B5094C6021204600F05EF8002809D09F
:101A0000204600F07BF805490968002902D0BDE8AE
:101A10001040084710BD000000380040DC000020E6
:101A20000029018802D041F0400101E021F040018D
:101A3000018070471A4910B5884202D101218414EF
:101A400024E01849884202D10121041404E0164917
:101A500088420AD10121C4132046FFF7C7FC204663
:101A6000BDE810400021FFF7C1BC1049884202D1F7
:101A7000012144140AE00E49884202D101210C05DB
:101A800004E00C4988420AD101214C052046FFF7A9
:101A9000C5FC2046BDE810400021FFF7BFBC10BDCB
:101AA0000030014000380040003C0040003401405C
:101AB000005001400054014030B501F00F030125F2
:101AC000024605FA03F40020A3B2090905FA01F45D
:101AD0009188A4B2128921401A4202D0002900D074
:101AE000012030BD090901238B40002A828899B268
:101AF00001D00A4300E08A438280704780897047A2
:101B000030B502884C8802F441530A88CD882243BC
:101B10008C882C4322430C8922434C8922438C8994
:101B20002243CC8922431A430280828B22F4006232
:101B30008283098A018230BD10B58A0721F003042F
:101B40000849120F21440F23D1F8084893409C43C1
:101B5000C1F80848D1F8083890400343C1F8083864
:101B600010BD0000003001400CB500222749009252
:101B70000192086840F4803008604FF4A043086880
:101B800000F4003001900098401C0090019810B9BA
:101B900000989842F3D10868800334D50120019061
:101BA0001A484030026842F08052026018480268C9
:101BB00042F4404202601548083002680260026840
:101BC00042F400420260026842F4A0520260031F25
:101BD000104A1A600A6842F080720A600A6892012C
:101BE000FCD50D4940F205720A60016821F003013D
:101BF0000160016841F0020101600168C1F38101E7
:101C00000229FAD10CBD01920CBD0000003802403F
:101C10000070004008544007003C02404FF0E021B3
:101C20000428086903D020F004000861704740F0E0
:101C30000400FAE710B509F05BFE012803D0BDE807
:101C4000104009F0E5BA10BD124810B5016841F422
:101C5000700101601048016841F0010101600E4A05
:101C600000210832116002680C4B1A400260031D0B
:101C70000B4A1A60026822F48022026006480C3087
:101C80000160FFF771FF03494FF000608039086081
:101C900010BD000088ED00E000380240FFFFF6FEB6
:101CA0001030002410B5084C0121204600F0C6F881
:101CB000012803D10548016801B188472046BDE8E5
:101CC0001040012100F004B800040040E0000020B2
:101CD000C943018270470029018802D041F0010107
:101CE00001E021F00101018070470000464910B574
:101CF000884206D101210846FFF790FB0021012010
:101D00005BE0B0F1804F09D0404988420DD10121FC
:101D10000220FFF76BFB0021022070E00121084642
:101D2000FFF764FB0021012069E03949884206D1B0
:101D300001210420FFF75AFB002104205FE0354910
:101D4000884206D101210820FFF750FB002108201E
:101D500055E03149884206D101211020FFF746FBAA
:101D6000002110204BE02D49884206D1012120207E
:101D7000FFF73CFB0021202041E02949884206D1A1
:101D800001210220FFF74AFB0021022015E025492E
:101D9000884202D101210C040AE02349884202D181
:101DA00001214C0404E0214988420AD101218C041C
:101DB0002046FFF733FB00212046BDE81040FFF727
:101DC0002DBB1B49884206D101214020FFF70EFBA5
:101DD0000021402013E01749884206D101218020CC
:101DE000FFF704FB0021802009E0134988420AD153
:101DF000841501212046FFF7F9FA00212046BDE8AD
:101E00001040FFF7F3BA10BD00000140000400408D
:101E100000080040000C004000100040001400408A
:101E200000040140004001400044014000480140DE
:101E300000180040001C0040002000400246002026
:101E4000138A92890B4202EA010202D0002A00D0D2
:101E500001207047002A828901D00A4300E08A43AA
:101E60008281704730B50288164C174DA0420DD0C4
:101E7000A8420BD0B0F1804F08D0144B984205D047
:101E8000134B984202D0134B984203D122F07003B7
:101E90004A881A43104B984206D0104B984203D000
:101EA00022F440730A891A4302804A68C2620A888F
:101EB0000285A04201D0A84201D1897A0186012180
:101EC000818230BD00000140000401400004004058
:101ED00000080040000C00400010004000140040CA
:101EE00010B50A4C40F22551204600F0FCF80028BD
:101EF0000AD0204600F084F90549C0B2C96800291B
:101F000002D0BDE81040084710BD0000004C004062
:101F1000AC00002010B50A4C40F22551204600F0DC
:101F2000E2F800280AD0204600F06AF90549C0B25C
:101F30000969002902D0BDE81040084710BD000023
:101F400000500040AC00002010B50A4C40F2255172
:101F5000204600F0C8F800280AD0204600F050F9CA
:101F60000549C0B20968002902D0BDE81040084701
:101F700010BD000000100140AC00002010B50A4C5C
:101F800040F22551204600F0AEF800280AD0204645
:101F900000F036F90549C0B24968002902D0BDE811
:101FA0001040084710BD000000440040AC00002075
:101FB00010B50A4C40F22551204600F094F8002854
:101FC0000AD0204600F01CF90549C0B289680029F2
:101FD00002D0BDE81040084710BD00000048004096
:101FE000AC00002010B50A4C40F22551204600F00C
:101FF0007AF800280AD0204600F002F90549C0B25C
:102000004969002902D0BDE81040084710BD000012
:1020100000140140AC0000200029818902D041F465
:10202000005101E021F4005181817047224910B52F
:10203000884206D101211020FFF7F0F9002110207D
:1020400020E01E49884202D101214C0429E01C49AC
:10205000884202D101218C0423E01A49884202D12E
:102060000121CC041DE01849884202D101210C0550
:1020700017E01649884209D101212020FFF7CEF947
:1020800000212020BDE81040FFF7C8B91049884260
:1020900002D101218C0704E00E4988420AD10121B6
:1020A00044052046FFF7A2F92046BDE81040002174
:1020B000FFF79CB910BD0000001001400044004033
:1020C00000480040004C0040005000400014014017
:1020D00000780040007C00400246002012880A423E
:1020E00000D00120704770B501F01F0501260024C3
:1020F000C1F3421306FA05F2012B0FD0022B0FD0C9
:10210000838A4FEA11210088134206FA01F600EA99
:10211000060001D000B10124204670BD8389F0E79C
:10212000038AEEE710B5C1F3421301F01F04012149
:10213000A140012B07D0022B07D01430002A0268DF
:1021400005D00A4304E00C30F8E71030F6E78A4384
:10215000026010BD7FB50446008A0D46C98820F490
:10216000405001432182A08941F20C618843A98833
:102170002A8911436A8902431143A181A08A20F46C
:102180004071A8890843A0826846FFF753F91A48AE
:10219000844202D01948844201D1039800E0029899
:1021A000A189090400EBC00101EB0010296801D5E9
:1021B000490000E08900B0FBF1F06422B0FBF2F1CD
:1021C00009010B096FF018056B4300EB8300A3892D
:1021D0001D044FF0320306D503EBC000B0FBF2F054
:1021E00000F0070005E003EB0010B0FBF2F000F098
:1021F0000F00084320817FBD001001400014014002
:102200008088C0F308007047C1F3080181807047DF
:10221000FEE700000149002008607047082C0040DC
:1022200010B57F2000F004F8BDE81040FFF7F2BFC2
:10223000024900F07F00086070470000002C004059
:1022400030380A2801D201207047002070477047BB
:102250000A46014602480023406809F041B90000DF
:102260008401002008B50146084800236A464068FA
:1022700009F0FAF90098002807D005494FF080507E
:102280000860BFF34F8FBFF36F8F08BD840100203C
:1022900004ED00E008B5054600213748009105F03F
:1022A00083FB002204210A2008F0C8FF334C606041
:1022B00002F048FD0121082002F05EFC40F6B8362D
:1022C000002332466946606808F0F4FF0128A068E0
:1022D00008D0806800B1804702F09CFD322007F0F2
:1022E000C7FFEDE7F8B1BDF80010A1390D293BD2C9
:1022F000DFE801F007091A1F21232527292B373E84
:102300004000C26811E0016969B19DF80310A52978
:1023100005D19DF802101A4A515C8DF8021002692D
:10232000BDF8021090471FE04269EAB1BDF8021003
:10233000F8E78269F9E7C269F7E7026AF5E7426AF6
:10234000F3E7826AF1E7C26AEFE7017800EB810008
:10235000406B07E0A060BDF8021042680846904755
:1023600002E0006B0028F5D1002DB5D0A847B3E7F7
:10237000406CF7E7806CF5E7E52300088401002056
:102380006CC800081CB5134A0021535C834204D07A
:10239000491CC9B21029F8D31AE0102918D20D48E7
:1023A0000023083801AA0068009041F42540ADF8E8
:1023B000020009486946406809F056F9019838B1A9
:1023C00006494FF080500860BFF34F8FBFF36F8F07
:1023D00000201CBD6CC800088401002004ED00E052
:1023E00005F06EB9054908B549680091ADF80200DD
:1023F0006846FFF737FF002008BD000064C80008EA
:102400001CB5064A0B4606A190600520CDE90002E6
:102410004FF40062064809F03FFA1CBD8401002019
:1024200061637469766974795F7461736B0000002D
:102430009522000810B502F073FC0021082002F07C
:102440009BFBBDE8104005F09DBA000070B5074D3C
:102450000C4602212846FEF7C0FC002804D028467E
:10246000FEF7B8FC2080012070BD00000020014074
:1024700030B58DB001210420FEF794FF01210D023B
:102480002846FEF7BFFF032010218DF82C000A918B
:1024900000248DF82F400AA91448FEF724FE0121DC
:1024A0002846FEF7BBFF00212846FEF7B7FF4FF492
:1024B000A060CDE9084028020790069406A8FEF720
:1024C00073FC8DF8044000948DF805400294049448
:1024D0000120074C8DF8140069462046FEF784FC65
:1024E00001212046FEF755FC0DB030BD000802402A
:1024F0000020014010B5064C01460723012220466A
:10250000FEF798FC2046BDE81040FEF7CDBC000069
:10251000002001402DE9F04F8BB00025080A0295FC
:10252000039504950A95CCB20995059506950795EE
:102530000895A52829D15248FEF707F9C0B28DF8B1
:10254000240081464E4809308346FEF7FEF8C0B2AB
:102550000127DFF82C814B4E8DF825004FF47A7A55
:102560000A2C13D009A9082C4BD0A4F1300009285B
:1025700008D83078095C082904D200EBC00202EBCD
:1025800008000C547078002850D06DE07178B9BB09
:10259000317811B1012915D048E0B9F1000F45D0CB
:1025A000377000952923BD2216216620019502F07F
:1025B00037FECDE900753E23BD222B21662002F0B7
:1025C0002FFEDFE780B33570092259462C48FEF70D
:1025D000DBF828B1022070702BA000F0ABFCD1E733
:1025E00077702CA000F0A6FC0720ADF81400244959
:1025F00006A8FEF786F8514605A801F0DFFFC1E7FF
:1026000001E0707840B1757012211D48FEF786F91F
:10261000002000F047F8B5E73078095C29B100EBFD
:10262000C0004144401E0D5400E008B320220821A0
:1026300002A8FEF76BF9307800EBC00101EB08004F
:10264000FEF783F801462A2202A8FEF75FF9CDE9DA
:102650000057307802ABC0EBC00000EB4001032212
:102660006A201A3102F0B0FD0BB00020BDE8F08FF7
:10267000AB20ADF8280051460AA8FFF7E9FD81E735
:102680004A6001208C040020C3DCC2EBB2BBD2BB89
:10269000D6C22100C3DCC2EBC9E8D6C3B3C9B9A610
:1026A000210000002DE9FC41002002F015FC01256D
:1026B0001423BF2219462846009502F045FC042247
:1026C000002311461046009502F012FC00953E23AF
:1026D000602216215F20019502F0A2FD002320A2B6
:1026E00002213C20009502F013FD00231FA21821B7
:1026F0000A20009502F00CFD002319A22B210A20CC
:10270000009502F005FD002473266B2704EB84007E
:1027100006EB4002262307EB40001946009502F025
:1027200013FC641C082CF1DB002404EB840006EB92
:1027300040023B2307EB40001946009502F004FCE1
:10274000641C082CF1DB0020CDE900502923BD22B8
:102750001621662002F064FD0020BDE8FC81000027
:10276000B9DCC0EDD4B1C3DCC2EB0000C7EBCAE4F6
:10277000C8EBD0C2B5C40000074810B500231A4604
:102780001946406808F096FDBDE810404FF480718E
:102790000248FEF7C3B80000A00000204C1800203B
:1027A00070B504460D4609A000F008FA3034E0B2D6
:1027B00005F058FE08A000F001FA08A1284600F034
:1027C00097F9002800D0012070BD000041542B4E25
:1027D000534F434C3D0000000D0A00004F4B0000DA
:1027E0002DE9F04188B00E46804615462021684606
:1027F000FEF7B6F81EA000F0E1F921A1284600F08E
:1028000077F94FF0FF3400282FD01EA000F0D6F942
:102810001BA1284600F06CF938B3FDF749FF0746C5
:1028200032461EA16846FDF7BDFD1DA000F0C6F9A9
:1028300007F13000C0B205F015FE1CA000F0BEF993
:10284000404600F0BBF919A000F0B8F9684600F066
:10285000B5F917A000F0B2F909A1284600F048F92F
:1028600018B1384608B0BDE8F0812046FAE700000C
:1028700041542B4E534F4E4D493D300D0A00000040
:102880004F4B000041542B4E534F43523D53545233
:1028900045414D2C362C302C310D0A0025640000AA
:1028A00041542B4E534F434F3D0000002C0000007D
:1028B0000D0A000010B505F05BFD03484068BDE857
:1028C000104007F07BBC0000A000002070B505465A
:1028D0000C4611A000F072F913A1204600F008F98F
:1028E000040017D011A1FDF7FAFE98B112A12046FD
:1028F000FDF7F5FE00280CD0801C04460FA1FDF763
:10290000EEFE002805D0021B21462846FEF74FF8B0
:10291000012070BD002070BD41542B4347504144FD
:1029200044523D300D0A00004F4B00002B434750EE
:102930004144445200000000302C00002000000000
:1029400070B505460C460CA000F038F90DA12046E4
:1029500000F0CEF804000DD00BA1FDF7C0FE48B189
:102960003A212046FDF7B1FE401CFDF7A1FE28608C
:10297000012070BD002070BD41542B4353510D0AFE
:10298000000000004F4B00002B435351000000009B
:1029900010B506494FF4165005F0FEFC0322002145
:1029A000012008F04BFC0249486010BDB529000821
:1029B000A000002038B5124C00254FF48071228809
:1029C0000A2806D0FF2A15D20E498854521C2280AC
:1029D00014E0012A0ED96946606808F0B5FE009837
:1029E00060B109494FF080500860BFF34F8FBFF3CB
:1029F0006F8F03E00348FDF791FF2580002038BD6D
:102A0000A00000204C18002004ED00E02DE9F04368
:102A100089B00D4607461C4691460026202168468F
:102A2000FDF79EFF4A462BA16846FDF7BBFC2AA096
:102A300000F0C4F83037F8B205F014FD29A000F01A
:102A4000BDF8684600F0BAF827A000F0B7F827A153
:102A5000204600F04DF820B304462C21601CFDF701
:102A600034FE040022D0761C032EF6DB441C2046E4
:102A7000FDF71EFE814500DD81462C212046FDF735
:102A800024FE00280FD0461C4FEA49083046FDF7C7
:102A90005CFE404503D23046FDF757FE80460024D9
:102AA00013E04FF0FF3009B0BDE8F0830020FAE7F3
:102AB0003019407800F078F90746305D00F074F97D
:102AC00047EA001005F8010BA41C4445F0DB48461A
:102AD000E9E700002564000041542B4E534F524655
:102AE0003D0000002C0000000D0A00004F4B0000CC
:102AF0002DE9F35F0646002408F008FF054600EBC9
:102B000006084FF4007B59462448FDF707FFA1460D
:102B10004FF4807A224F3CE004F58070584502D98A
:102B2000C4F5007000E0504685B200231B4E6422BD
:102B30001946786808F0BEFBF0B13888854200D9A4
:102B4000054630192A461749FDF769FE51461548D2
:102B5000FDF7E4FEA7F80090601984B2B5B10F4903
:102B60002020214401F8010C0C480199FDF7B7FD24
:102B700020B10A48BDE8FC9F4D46EDE70AA1074891
:102B8000FDF7ADFD38B9B4F5FF7F04D808F0BEFEFF
:102B900005464545C0D30020ECE700004C19002055
:102BA000A00000204C1800204552524F5200000057
:102BB00001A000F003B800000D0A000010B50446A3
:102BC00002E0641C05F04EFC20780028F9D110BD0D
:102BD000F0B589B00D4604461F46164620216846CA
:102BE000FDF7BEFE32461AA16846FDF7DBFB19A0D1
:102BF000FFF7E4FF3034E0B205F034FC18A0FFF733
:102C0000DDFF6846FFF7DAFF15A0FFF7D7FF0020CA
:102C1000044608900EE02A5D12A108A8FDF7C2FB49
:102C2000285D102802D210A0FFF7C8FF08A8FFF700
:102C3000C5FF641CB442EEDB0CA0FFF7BFFF0CA184
:102C40003846FFF755FF002800D0012009B0F0BD3D
:102C50002564000041542B4E534F53443D00000067
:102C60002C00000025780000300000000D0A000054
:102C70004F4B000070B504460D4609A0FFF79EFFBC
:102C80003034E0B205F0EEFB08A0FFF797FF08A193
:102C90002846FFF72DFF002800D0012070BD00005E
:102CA00041542B4346554E3D000000000D0A0000E4
:102CB0004F4B000010B50C4608B106A000E00DA077
:102CC000FFF77CFF13A12046FFF712FF002800D07A
:102CD000012010BD41542B4E434F4E4649473D41C4
:102CE00055544F434F4E4E4543542C545255450D69
:102CF0000A00000041542B4E434F4E4649473D4188
:102D000055544F434F4E4E4543542C46414C53452A
:102D10000D0A00004F4B000070B504460D4609A097
:102D2000FFF74CFF3034E0B205F09CFB08A0FFF742
:102D300045FF08A12846FFF7DBFE002800D0012050
:102D400070BD000041542B515245475357543D002C
:102D50000D0A00004F4B000010B504460BA0FFF712
:102D60002DFF21460120FFF785FF00280CD02146CA
:102D70000120FFF79FFF002806D021460220FFF721
:102D8000CBFF002800D0012010BD00004154453089
:102D90000D0A0000092800D30820024901EB0010A9
:102DA00070470000500A0020A0F13001092901D825
:102DB000C8B27047A0F14101052902D83738C0B226
:102DC0007047002070470020704738B50346002048
:102DD0000C0ACAB20090A52C10D14FF47A710A2ABD
:102DE0000ED0082A0ED0752A0ED0642A0ED0313AA1
:102DF000032A03D8D0B2187000F0C1F8002038BD03
:102E0000AA2004E0AB2002E0AD2000E0AC20ADF849
:102E100000006846FFF71CFAF0E700002DE9F843D0
:102E200007461D4690460E460020DDF8209002F031
:102E300053F801241423BF2219462046009402F0BF
:102E400083F829235D2219460120009402F07CF8C2
:102E50002923BF2219466220009402F075F83E2310
:102E60005D2219460120009402F06EF83E23BF2235
:102E700019466220009402F067F8042200231146EC
:102E80001046009402F034F800233A460221502004
:102E9000009402F03DF96EB1002322A21721032015
:102EA000009402F035F90023324617210F200094D8
:102EB00002F02EF9B8F1000F0DD000231AA22C2138
:102EC0000320009402F024F9002342462C210F2015
:102ED000009402F01DF96DB1002314A217216320A4
:102EE000009402F015F900232A4617216F20009460
:102EF00002F00EF9B9F1000F0DD000230CA22C2125
:102F00006320009402F004F900234A462C216F202C
:102F1000009402F0FDF8002000F031F80020BDE838
:102F2000F883000031000000320000003300000090
:102F3000340000007CB501240025CDE9005406468C
:102F400036239D221B21222002F06AF936239D227E
:102F50001B212220CDE9004502F062F933239A2299
:102F60001E212520CDE9004502F05AF90023324602
:102F700020212820009402F0CBF800207CBD7CB5F5
:102F800000240546009427235D2216210120019488
:102F900002F046F900943C235D222B21012001948C
:102FA00002F03EF900942723BE22162161200194ED
:102FB00002F036F900943C23BE222B2161200194BB
:102FC00002F02EF9012065B1012D0ED0022D15D091
:102FD000032D12D13C23BE222B21CDE90004612018
:102FE00009E027235D22162102E03C235D222B21EC
:102FF000CDE90004012002F013F97CBD2723BE2295
:103000001621EAE7F8B5080A0026C9B20096A528F5
:1030100001D00020F8BD304C2E4FA51E07F10B0249
:1030200063782878A2F1050C4FF0010E752906D0BF
:10303000642912D00A2926D0082935D02EE0215C37
:103040003E5CB14201D9491E03E0022803D01CF8BE
:103050000010215412E0985C0FE0022806D0215C99
:103060001CF8002091420CD2491CF2E7A078995C30
:10307000884201D2401C00E0B878A07085F801E0D9
:103080000CE0395CE5E7215C002200F0BBF8287811
:10309000401CC0B22870062800D32E702878012268
:1030A000215C00F0AFF8B4E7687848B16279217923
:1030B000E07804F0AFFAA2786178207804F070FA32
:1030C000AB20ADF800004FF47A716846FFF7C0F806
:1030D000E3E700007CC80008860900207CB50125D4
:1030E0000026CDE900653C23BF221521284602F0C9
:1030F00097F8002337A202215020009502F008F82B
:10310000002337A202211420009502F001F8354C6B
:10311000621D211DE01C04F0B7F9A21C611C2046B1
:1031200004F08AF9207830A3401E2070CDE90065B4
:10313000012217212E2002F047F800232BA217218D
:103140004E20009501F0E4FF002329A217216E20F4
:10315000009501F0DDFF002326A217218E200095A7
:1031600001F0D6FF002324A22B213E20009501F080
:10317000CFFF002321A22B215E20009501F0C8FF84
:1031800000231FA22B217E20009501F0C1FF217892
:103190000122002000F036F861780022012000F0C2
:1031A00031F8A1780022022000F02CF8E17800220A
:1031B000032000F027F821790022042000F022F8F3
:1031C00061790022052000F01DF8A01E4670002045
:1031D0007CBD0000CAB1BCE4C9E8D6C30000000051
:1031E000312F31008609002032300000C4EA00008F
:1031F000D4C20000C8D50000CAB10000B7D6000094
:10320000C3EB00002DE9FC4791460E46F0B10128C2
:103210001ED002281ED003281FD004281FD06E24E1
:103220002B25012000270A2E1BD28046CDE90078ED
:1032300016A301222946204601F0C6FFCDE90078F9
:1032400033460122294604F1080010E03E2402E042
:103250005E2400E07E241725E3E72E24E0E74E24D9
:10326000DEE7CDE900700B4601222946204601F039
:1032700089FFCDE9009705F1100304F110022946FA
:10328000204601F0CDFFBDE8FC87000030000000C3
:1032900010B504460420FEF7C1FC0A484FF47A71C9
:1032A000047014FB01F1012242804FF0E02002691A
:1032B00042F0020202614161016941F001010161D4
:1032C00010BD0000A800002070B5044608F010FBF7
:1032D00001280CD0094D6888844203D3B4FBF0F078
:1032E00006F0C6FF6888B4FBF0F100FB11444FF410
:1032F0007A706043BDE8704000F002B8A80000207A
:1033000070B54FF0E02500216C69094AAB6912786D
:103310005043AA699A42FCD002D2A3EB020302E016
:10332000A4EB02063344194413468142F1D370BD25
:10333000A8000020084910B5CA6B824201D80020BD
:1033400010BD00EB800001EBC00028214030FDF7EC
:1033500007FB012010BD0000E0100020004870476E
:10336000001100200148006970470000E0100020B3
:103370000148C08D70470000E01000200148C0687F
:1033800070470000E01000200549CA6B824201D856
:103390000020704700EB800001EBC0004030704718
:1033A000E01000200148808D70470000E0100020F0
:1033B0004FF4E8720149024804F000BCE01000201C
:1033C00000000E0810B54FF4E8720849084804F0F0
:1033D000D7FB002809D005490968491C05D100F030
:1033E00009F8BDE81040FFF7E3BF10BDE010002072
:1033F00000000E0810B54FF4E8710E48FDF7B0FA62
:103400000C4801210E228180C180C0E903210A22DB
:10341000C26381850021C18501630C2206A114309D
:10342000FDF7C5FA03480C22BDE8104004A1203086
:10343000FDF7BDBAE010002061646D696E00000008
:1034400034333231383736350000000070B50E465F
:1034500001004FF000000B4C054607D06561A561E7
:1034600004F11400E561FDF74CF90120002E08D0AD
:1034700025620448656231462030A562FDF741F9B6
:10348000012070BDE0100020014908617047000074
:10349000E01000200149C88570470000E0100020BE
:1034A0000149C86070470000E010002070B5164662
:1034B0000F4A1D46D36B834206D92EB100EB800024
:1034C00002EBC000026C0AB1002070BD00F14004A4
:1034D00001202060201DFDF714F9314604F1100091
:1034E000FDF70FF9E56125620120656270BD0000FE
:1034F000E01000200149888570470000E01000209E
:10350000074810B500231A461946406807F0D2FE56
:10351000BDE810404FF480710248FDF7FFB900008C
:10352000980000204C15002010B5044605A000F0BE
:10353000F9F908A1204600F095F9002800D00120F3
:1035400010BD000041542B434950434C4F53450D8F
:103550000A0000004F4B000070B588B00D460646CB
:10356000144620216846FDF7FBF913A000F0DAF9B4
:1035700016A1204600F076F900281AD02A4614A198
:103580006846FCF70FFF13A000F0CCF9304600F0BE
:10359000C9F915A000F0C6F9684600F0C3F90AA001
:1035A00000F0C0F909A1204600F05CF9002800D025
:1035B000012008B070BD000041542B4349505245D2
:1035C00043564D4F44453D310D0A00004F4B00001E
:1035D0002564000041542B43495053544152543DFB
:1035E00022544350222C2200222C000010B505F05A
:1035F00001F903484068BDE8104006F0DFBD000057
:103600009800002070B505460C4611A000F08AF91C
:1036100013A1204600F026F9040017D011A1FDF7F0
:103620005EF898B111A12046FDF759F800280CD09A
:10363000001D04460FA1FDF752F8002805D0021B1B
:1036400021462846FDF7B3F9012070BD002070BD6A
:1036500041542B4349505354413F0D0A0000000090
:103660004F4B0000434950535441000069703A22C7
:10367000000000002200000070B505460E46002440
:103680000FA000F04FF911A1304600F0EBF8060052
:1036900013D00FA1FDF723F878B130462C21401C40
:1036A000FDF713F8002807D0641C032CF6DB401C40
:1036B000FCF7FEFF2860012070BD002070BD0000F7
:1036C00041542B43574A41503F0D0A004F4B0000D5
:1036D00043574A415000000070B505460C4611A002
:1036E00000F020F912A1204600F0BCF8040017D029
:1036F00010A1FCF7F4FF98B110A12046FCF7EFFFF2
:1037000000280CD0801C04460DA1FCF7E8FF00281F
:1037100005D0021B21462846FDF749F9012070BD5E
:10372000002070BD41542B43574A41503F0D0A00C1
:103730004F4B000043574A41500000003A2200001E
:103740002200000010B506494FF4E13005F066F89C
:1037500003220021012007F071FD0249486010BDDD
:10376000693700089800002038B5124C00254FF446
:10377000807122880A2806D0FF2A15D20E49885463
:10378000521C228014E0012A0ED96946606807F0B5
:10379000DBFF009860B109494FF080500860BFF32B
:1037A0004F8FBFF36F8F03E00348FDF7B7F8258015
:1037B000002038BD980000204C15002004ED00E0EA
:1037C000F0B589B00D460646144620216846FDF73F
:1037D000C7F82A4618A16846FCF7E4FD17A000F0D8
:1037E000A1F8684600F09EF818A000F09BF818A118
:1037F000204600F037F8040019D016A1FCF76FFF3F
:1038000007463A212046FCF760FF044697B18CB189
:1038100007F10D00FCF74CFF854200DD0546611CF9
:103820002A463046FCF7FBFF284609B0F0BD4FF0B2
:10383000FF30FAE70020F8E72564000041542B43ED
:10384000495052454356444154413D000D0A000041
:103850004F4B00002B43495052454356444154417D
:10386000000000002DE9F35F0646002408F04EF842
:10387000054600EB06084FF4007B59462448FDF747
:103880004DF8A1464FF4807A224F3CE004F5807059
:10389000584502D9C4F5007000E0504685B20023B7
:1038A0001B4E64221946786807F004FDF0B1388891
:1038B000854200D9054630192A461749FCF7AFFF63
:1038C00051461548FDF72AF8A7F80090601984B210
:1038D000B5B10F492020214401F8010C0C48019991
:1038E000FCF7FDFE20B10A48BDE8FC9F4D46EDE720
:1038F0000AA10748FCF7F3FE38B9B4F5FF7F04D8F6
:1039000008F004F805464545C0D30020ECE7000068
:103910004C160020980000204C1500204552524FB4
:103920005200000010B5044602E0641C04F0DAFF07
:1039300020780028F9D110BD70B588B00E46054634
:10394000144620216846FDF70BF832460FA1684661
:10395000FCF728FD0EA0FFF7E5FF6846FFF7E2FF42
:103960000EA0FFF7DFFF0EA12046FFF77BFF002828
:1039700009D02846FFF7D6FF09A12046FFF772FFBE
:10398000002800D0012008B070BD000025640000B0
:1039900041542B43495053454E443D000D0A00000D
:1039A0004F4B000070B504460D4609A0FFF7BAFF63
:1039B0003034E0B204F096FF08A0FFF7B3FF08A18F
:1039C0002846FFF74FFF002800D0012070BD0000FF
:1039D00041542B43574D4F44453D00000D0A000014
:1039E0004F4B000010B5044606A0FFF79BFFFFF702
:1039F00087FD21460120FFF7D5FF002800D00120D8
:103A000010BD0000415445300D0A000010B50446B9
:103A100005A0FFF787FF09A12046FFF723FF002835
:103A200000D0012010BD000041542B435753544196
:103A30005254534D4152540D0A0000004F4B0000A8
:103A400010B5044605A0FFF76DFF09A12046FFF75A
:103A500009FF002800D0012010BD000041542B4375
:103A60005753544F50534D4152540D0A000000001B
:103A70004F4B000010B503A1FFF7F4FE002800D063
:103A8000012010BD736D617274636F6E666967208B
:103A9000636F6E6E6563746564000000F0B5074681
:103AA00085B001210220FDF77DFC01218803FDF78F
:103AB000A9FC00248DF8044001258DF806504FF430
:103AC00080568DF8054000968DF8074069461148EC
:103AD000FDF709FB0C210120FEF72EF80E480760C8
:103AE0008DF80C4008208DF80D0002968DF80E50D0
:103AF00002A8FDF717FA28208DF810000B208DF88A
:103B000011008DF812408DF8135004A8FDF7E4FB66
:103B100005B0F0BD00040240EC00002010B50446E2
:103B200002F034FB06484FF0010180681CB1BDE88B
:103B3000104007F08BBABDE8104007F047BA00000C
:103B4000A40100200A46014602480023406807F00D
:103B5000C7BC0000A40100208CB000263446ADF89C
:103B6000006001963746029602F0CCFB0421002249
:103B7000084607F063FB604D686007F059FAA846F5
:103B8000A86040F6B8394FF47A7AA6250021D8F813
:103B9000080007F01BFAC0070BD0642006F068FB92
:103BA0000420ADF80800ADF80A40514602A8FFF71E
:103BB000C9FF0023524601A9D8F8040007F07AFB98
:103BC00001286CD1BDF80400ADF80040062826D2CB
:103BD000DFE800F0252A11360353494603A8039471
:103BE00002F0E8FB06001AD103981E30FCF760FDD6
:103BF000ADF8000013E0504606F03AFBBDF8066051
:103C00004F46242103A8FCF7ABFE33463BA22121FB
:103C100003A8FCF7DDFB394603A80AE00646002EA0
:103C200053D0FF2E60D029E0504606F021FB4946D4
:103C30003BA002F0E1FA08B10228EFD12046EDE7FF
:103C4000504606F015FBBDF8066041F27C57242172
:103C500003A8FCF785FE334628A2212103A8FCF720
:103C6000B7FB394603A802F0C7FA08B10228D5D13C
:103C7000394603A802F0DEF9D0E70126ADF8085076
:103C8000FF208DF80B008DF80A60514602A8FEF760
:103C9000DFFA07F03BFE0746642006F0E9FA002F42
:103CA0003FF474AF07F032FEC01BB0F5FA6F7FF639
:103CB0006DAFADF808508DF80B4000278DF80A4025
:103CC000514602A8FEF7C4FA60E7ADF8085001209B
:103CD0008DF80B00BDF800008DF80A00514602A8CF
:103CE000FEF7B6FA0027D7E7ADF8085002208DF8A6
:103CF0000B008DF80A40C8E7A40100204544453672
:103D00004538303041323030303030303030303083
:103D10003030303030303030253034580000000042
:103D20004646464646464646464646464646464633
:103D30004646464646464646464646464646464623
:103D4000000000001CB5064A0A21CDE90012034616
:103D50004FF4806203A1064807F09EFD1CBD0000E1
:103D6000A4010020666163655F7461736B000000ED
:103D7000593B000870B5094C206800280CD006F0AB
:103D8000ADFA00252560606810B106F017FA65608D
:103D9000BDE8704002F024BA70BD0000A40100200C
:103DA000062800D30520034900EB800001EB8000CA
:103DB00070470000D80900201CB500230C46009372
:103DC0000A218DF80010010A8DF801108DF802000B
:103DD00001938DF803308DF804300521684600F01A
:103DE0005DF830B10448C079052801D22070002068
:103DF0001CBDFF201CBD0000540000201CB500218C
:103E000000910191052102468DF80010684600F0EE
:103E100045F810B10248C0791CBDFF201CBD000050
:103E2000540000201CB50023009304228DF80020CC
:103E3000020A8DF801208DF8020001930A468DF8E0
:103E400003308DF804300521684600F027F810B1E2
:103E50000248C0791CBDFF201CBD0000540000209A
:103E600010B504F025FC03480068BDE8104006F0DA
:103E7000A5B900005000002010B506494FF4964047
:103E800004F02AFC03220021012007F0D7F902499F
:103E9000086010BD613F0008500000202DE9F0418E
:103EA0000646002490460F462546F52004F090FC77
:103EB00006E0305D04F08CFC305D4540641CE4B2EB
:103EC000BC42F6D3284604F083FCF52004F080FCC5
:103ED0000448424600230068BDE8F041194607F057
:103EE000E9B90000500000201CB5002300930193A5
:103EF000A8B1C40813D18DF80000080A8DF801009C
:103F00008DF8021001208DF803008DF80430052192
:103F10006846FFF7C3FF10B10248C0791CBDFF20FF
:103F20001CBD0000540000201CB504460020009079
:103F3000019009208DF800000A4605216846FFF728
:103F4000ADFF40B10549C879002803D1B1F805108B
:103F500049BA21801CBDFF201CBD00005400002078
:103F600038B5244C002221466378497A052B3DD28E
:103F7000DFE803F003070C1D2100F52837D10120ED
:103F800013E02071A270607202200EE01949A2783D
:103F9000491D5054A178491CC9B2A170627A4240AF
:103FA0006272E078814222D3032060701FE04140BA
:103FB00061720420F9E7F52800D1A9B10020207032
:103FC000627078B10B486946001F006807F0BCFBBF
:103FD000009838B108494FF080500860BFF34F8F08
:103FE000BFF36F8F207838BD0120E8E762700020B2
:103FF00038BD00005400002004ED00E01CB504466C
:104000000020009001900C208DF800000A46052148
:104010006846FFF743FF48B10549C879052804D22F
:10402000B1F8050040BA208000201CBDFF201CBD57
:1040300054000020F8B506460020ADF800000D46FB
:10404000304600F01FF800280DD12A4631460120E5
:10405000FFF74AFF040007D0FF2C03D1294668462A
:10406000FFF762FF2046F8BD2A4631460220FFF7DF
:104070003BFF0400F0D12A4631460320FFF734FF0E
:104080000446E9E738B5054600200C468DF80000E7
:104090000A4669462846FFF78FFE18B9214628468A
:1040A000FFF7C0FE052800D1002038BD01000448FC
:1040B0004FF00101806801D006F0C8BF06F086BF4E
:1040C000780100200A46014602480023406807F0B4
:1040D00007BA0000780100201FB500242746ADF87C
:1040E00004402546FFF7C8FE04210022084607F0D9
:1040F000A5F84E4E706006F09BFFB14640F6B83A08
:104100004FF47A7B4FF0A408B0600021D9F8080082
:1041100006F05CFF0646C0070CD04FF4FA7006F0BC
:10412000A7F80420ADF80000ADF8027059466846C3
:10413000FFF7C8FF00235A4602A9D9F8040007F088
:10414000B9F8012837D1BDF80800ADF8047001288E
:1041500019D0022811D0032841D0042817D101A872
:104160005146ADF80C70FFF749FF0446FF280ED109
:10417000514603A8FFF7D8FE09E0BDF80A005146F2
:10418000FFF780FF02E05046FFF738FE04466CB3AD
:10419000FF2C3AD0FF208DF803008DF8024007F085
:1041A000B5FB0546ADF8008059466846FEF750F865
:1041B000642006F05DF8002DA7D007F0A7FB401B98
:1041C000B0F5FA6FA1D9ADF800808DF80370002525
:1041D0008DF8027059466846FEF73AF895E7BDF843
:1041E0000A0041F28831FFF725FFCFE701208DF863
:1041F0000300BDF804008DF80200ADF800805946B8
:104200006846FEF725F80025D2E702208DF8030066
:104210008DF80270F007CBD1ADF8008059466846A2
:10422000FEF716F807F072FB0546C1E7780100209B
:104230001CB5064A0A21CDE9001203464FF4AF72BD
:1042400003A1064807F028FB1CBD000078010020F0
:104250006670635F7461736B00000000D9400008F2
:1042600070B5094C206800280CD006F037F80025FE
:104270002560606810B105F0A1FF6560BDE8704081
:10428000FFF7EEBD70BD00007801002010B50446B8
:10429000C0B204F05BF8204610BD2DE9FC410E468B
:1042A0000546012100240846FDF77CF80121022083
:1042B000FDF778F801210420FDF774F800270EE0DF
:1042C000A8888DF8047000908DF80570A8798DF895
:1042D000070069462868FCF706FF641CA4B2B442D4
:1042E000EED3BDE8FC81417A032202EA4102427228
:1042F000C179CB431B0702D0090701D001E001219E
:104300000172017A0A434272084670472DE9FC4166
:104310000F46054601210846FDF744F80121022019
:10432000FDF740F801210420FDF73CF8002421E0CE
:1043300005EBC4066946B088009001208DF80400A2
:1043400000208DF8060002208DF80500B0798DF868
:10435000070055F83400FCF7C6FEF079B188002854
:1043600055F8340002D0FCF713FF01E0FCF70EFF14
:10437000641CA4B2BC42DBD3BDE8FC8110B586B09E
:1043800001210220FDF70EF801214805FDF722F872
:104390001C4C042208212046FCF7E1FE04220921DE
:1043A0002046FCF7DCFE4FF44071049102218DF8A9
:1043B00014108DF8151001208DF8160004A9204660
:1043C000FCF791FE0020ADF80400ADF808002015C0
:1043D000ADF80A000001ADF80C004BF6FF710A4879
:1043E0000A4CADF80610009069462046FCF708FF1D
:1043F00001212046FCF7E5FE01212046FCF7CBFE1B
:1044000006B010BD00040240A08601000054004028
:104410002DE9F047364F8A4681461C461546012154
:104420003846FCF7B8FE01213846FCF7D4FE314E81
:10443000B84631464046FCF7B8FE0028F9D04FEAAE
:104440004907F9B200224046FCF739FFDFF8A8908F
:1044500040464946FCF7A9FE0028F9D0514640469F
:10446000FCF735FFDFF8909009F102094946404614
:10447000FCF79BFE0028F9D001214046FCF7ABFE7B
:10448000B146464649463046FCF78FFE0028F9D033
:10449000F9B201223046FCF712FF164F7F1C394655
:1044A0003046FCF782FE0028F9D0124F3F37BCB1EE
:1044B000012C07D100213046FCF76DFE012130466A
:1044C000FCF793FE39463046FCF76FFE0028EED02D
:1044D0003046FCF7F1FE641E05F8010BE4B2E6E796
:1044E00001213046FCF757FE0020BDE8F0870000B0
:1044F00000540040010003008200070010B5FFF7E0
:104500003DFF00F0EBFA0121002000F035FB012116
:10451000084600F031FBFEF755FFFDF7A9FF02F05A
:10452000C5FF05494FF4E13003F0AAFEBDE8104095
:104530000249B42002F0FCBF85230008A5760008DC
:1045400070B506464FF6FF7500242046FEF71CFFA7
:10455000016831B100F110010C223046FCF714F96A
:1045600028B1641CA4B20A2CEFD3284670BD25469E
:10457000FBE770B506464FF6FF7500242046FEF7B0
:1045800003FF016829B1011D0C223046FCF7FCF83D
:1045900028B1641CA4B20A2CF0D3284670BD25466D
:1045A000FBE710B5002306E050F82340944340F8A1
:1045B00023405B1C9BB28B42F6D310BD0A460146DA
:1045C00002480023406806F08BBF000090010020E5
:1045D00090B028216846FCF7C3F900242646A1467E
:1045E0000A940B940C940D940E9406F021FDD44D76
:1045F00000221021A860042006F020FE6860002040
:10460000FFF716FE002006F001F90020FFF79AFBE5
:104610004FF0010ACA4800234FF47A720AA9406891
:1046200006F048FE012815D0002EF3D007F06EF9F1
:10463000801BB0F5FA6FEDD9A320ADF83800002645
:104640008DF83B608DF83A604FF47A710EA8FDF753
:10465000FFFDDFE7BDF8280000250D280ED2DFE8BA
:1046600000F00D070E325A89B8E90DF2F0EFEE00B6
:104670000F220A216846FFF794FF0024F8E04FF666
:10468000FF780BAF4646FEF769FE01460C2238461E
:10469000FCF77AF800B90026464503D28DF83BA016
:1046A00000260AE001220A216846FFF77AFFFF2070
:1046B0008DF83B0007F02AF90646A320ADF8380034
:1046C0008DF83AA021E00BA8FFF73AFF4FF6FF71F3
:1046D000884209D25DF82020002642F001024DF800
:1046E00020208DF83BA00AE001220A216846FFF74E
:1046F00058FFFF208DF83B0007F008F90646A3207D
:10470000ADF8380000208DF83A004FF47A710EA809
:10471000FDF79EFDACE00B984FF6FF7B80B25FEAA1
:1047200000084FF000070DD03846FEF72DFE016857
:1047300021B1C169414501D1BB4603E07F1CBFB235
:104740000A2FF1D34FF6FF7158468B4505D25DF81D
:104750002020694642F002025CE00B9810B144F060
:10476000020485E002220A216846FFF71AFF24F0BE
:1047700002047DE00B984FF6FF7B80B25FEA0008F1
:104780004FF000070DD03846FEF7FEFD016821B15D
:10479000016A414501D1BB4603E07F1CBFB20A2F2D
:1047A000F1D34FF6FF7158468B4505D25DF82020B6
:1047B000694642F004022DE00B9810B144F0040465
:1047C00056E004220A216846FFF7EBFE24F00404B9
:1047D0004EE00B984FF6FF7B80B25FEA00084FF087
:1047E00000070DD03846FEF7CFFD016821B1416AC0
:1047F000414501D1BB4603E07F1CBFB20A2FF1D374
:104800004FF6FF7158468B4507D25DF82020694668
:1048100042F0080241F82B202AE00B9810B144F036
:10482000080425E008220A216846FFF7BAFE24F0B2
:1048300008041DE00BA943A0FEF708FE17E032E0D4
:1048400011E00EE0FFE70B9818B90C9808B9CDF805
:104850002CA00B98FEF724FE0C98FEF715FE55468B
:1048600006E0012504E00B98C0B2FEF763FD0546A3
:1048700033480021806806F0A9FBC00759D0FEF735
:104880007DFD0746FEF76EFD80464FF0FF0C21468A
:1048900063460020EE465EF820209346114338EA36
:1048A0000B0203D009E0FEF7A5FDD8E7C3B217B1AC
:1048B0001BEA070F01D000F0FF0C401C0A28EAD3C6
:1048C000FF2B0AD2634508D1AA20ADF8380000209A
:1048D0008DF83B008DF83A300EE038EA010817D128
:1048E0000FB1394214D0AA20ADF83800FF208DF85E
:1048F0003B0000208DF83A004FF47A710EA8FDF7C6
:10490000A7FC0F220A216846FFF74BFE0024214630
:10491000B9F1000F01D031B10BE051B14FF00109F5
:104920000021484603E04FF000094946484602F09E
:10493000E5FC0DB1FEF73CFD322005F099FC69E67F
:104940009001002061646D696E0000001CB5064A8C
:104950000621CDE9001203464FF4007203A1074877
:1049600006F09AFF1CBD0000900100206964656E8E
:10497000746966795F7461736B000000D14500084B
:1049800070B50B4C2068002810D005F0A7FC00255E
:104990002560606810B105F011FC6560FFF760FCF0
:1049A00005F04CFFBDE87040FFF7E4B970BD0000B2
:1049B0009001002070B5094E002505EB450006EB7F
:1049C0008004A1882068FCF7DAFBE1796D1C40EADD
:1049D0004100E071072DF0DB70BD0000B014002035
:1049E00003F008BC034900EB400001EB8000C079F4
:1049F00070470000B014002070B52A48284EFF23ED
:104A000040C0711520F8041B002100F8021C00F8BA
:104A1000013C012200F8082B234C00F8071C40F849
:104A2000044C150205808170C170017141711F4DE8
:104A3000856082818173C37302744174446102830F
:104A40008176C3760277417706620826868480F8ED
:104A5000261080F8273080F8282080F82910C462BA
:104A60000224048680F8321080F8333080F8342035
:104A700080F8351014038563848780F83E1080F831
:104A80003F3080F8402080F8411007210548FFF7AB
:104A900004FCBDE8704006494FF4FA6003F0BCBB6B
:104AA00000080240B0140020000002400004024050
:104AB000B5490008034900EB400001EB8000407A53
:104AC00070470000B0140020034900EB400001EBE8
:104AD0008000FFF708BC0000B0140020F0B42348A9
:104AE000214C042604608680012181710022C2715C
:104AF0001F4B2025836085818173C2731D4F8025E4
:104B0000076185828175C2754FF4807C8361A0F84E
:104B10001CC08177C2774FF0020C0462A0F824C059
:104B200080F8261080F827208362868580F82E1072
:104B300080F82F2003634B03838680F8361080F8BB
:104B40003720CB038763838780F83E1080F83F20AF
:104B50000464A0F8445080F8461080F84720F0BC68
:104B60000921FFF7D3BB0000000402400415002018
:104B7000000802400000024009280BD2064B002921
:104B800003EBC00253F83000918801D0FCF700BB62
:104B9000FCF7FCBA704700000415002038B5FFF799
:104BA0002BFF0A48012300901A46FA2108A007F0BB
:104BB0008BF80B4CE06006F0A9FE0246002003468D
:104BC00000900121E06807F0F3F838BD054C0008BB
:104BD0006B65795F696E745F6C6F6F7000000000C9
:104BE000B001002008B5FFF7FBFE00200346024697
:104BF000009003480321C06807F0DAF808BD000000
:104C0000B00100202DE9F04385B000240094019408
:104C10000294039401200494FFF756FF0420FFF749
:104C200053FF0320FFF750FF0120FFF743FF012749
:104C30003A4E4FF0A1084FF47A79012809D1A6F82D
:104C40000080F770FFF736FFB07049463046FDF739
:104C5000FFFA0420FFF72EFF02280AD1A6F80080F1
:104C60000420F070FFF726FFB07049462B48FDF78F
:104C7000EFFA0320FFF71EFF284D083DE8B16C70E6
:104C80000520FFF7AFFEC0434007287840D00A2830
:104C900010D2401CC0B228700A280BD12C70A6F884
:104CA00000800520F070FFF705FFB07049461B48F3
:104CB000FDF7CEFA05B0BDE8F0836878401CC0B2BD
:104CC00068701428DCD90221012002F017FB0C20A7
:104CD000ADF80400494601A80294FFF76FFCADF857
:104CE000007049466846FFF7EDF9ADF80070494697
:104CF000684605F0C5FCADF8007049466846FEF709
:104D000021FF40F6B83005F0B3FA02F027FEB7E70E
:104D10000128CFD9801E2870CCE70000B801002000
:104D200010B5AE2000F054F805480021C0F89812E4
:104D3000C0F89012C0F88C12C0F8941210BD000098
:104D4000008040421CB501210220FCF72BFBF8201B
:104D5000009001208DF8040000218DF80610032139
:104D60008DF805108DF8070069461848FCF7BBF967
:104D7000C820FEF7A9FAE22000F02AF8C820FEF7C2
:104D8000A3FA2F2000F024F8C820FEF79DFAA020F7
:104D900000F01EF8812000F01BF8652000F018F8E4
:104DA000EB2000F015F8C42000F012F8AF2000F05E
:104DB0000FF8402000F00CF8002000F071FA0020FD
:104DC00000F08AF8BDE81C4000F024B8000402405E
:104DD000024A0021C2F8901200F002B8008040425E
:104DE00030B50B4A00210B46C2F898120124C2F8D4
:104DF0008C32C509C2F89452C2F88C424006491C54
:104E0000000EC9B20829F2D3C2F8984230BD0000A2
:104E1000008040422DE9F0470025DFF84C90DFF894
:104E20004C804FF0100A012705F1B000C0B2FFF727
:104E3000CFFF5046FFF7CCFF0020FFF7C9FF05EB7F
:104E40004500002409EB8016305DC8F89072FFF72A
:104E5000C7FF641CE4B2C02CF6D36D1CEDB2082D64
:104E6000E2D3BDE8F0870000E00A00200080404265
:104E70002DE9FF4F81B08246DDF840B00E9E174607
:104E8000500700D0012000EBE70000F0FF090025EB
:104E90004FF080081AE0029800242844009011E0A6
:104EA00006EBE40104F007030A7828FA03F10AEBA1
:104EB00004000A4201D05A4600E00F9A009900F01F
:104EC00007FA641CBC42EBDB4E446D1C049885421F
:104ED000E1DB05B0BDE8F08F4FF4C06118B1FF22EF
:104EE0000248FBF713BD0148FBF718BDE00A00209C
:104EF0002DE9FE4F82461D4689461046DDF830807A
:104F0000FDF748FF04464068410700D0012101EB4E
:104F1000E000217A4143CFB2384602F043F9064619
:104F20003A463146E06802F02BFECDE90065CDF847
:104F30000880D4E9012349465046FFF799FF3046DF
:104F4000BDE8FE4F05F082B82DE9FC4F06461B4830
:104F50000D46994692461946C0E90023971B00D595
:104F60007F42481B00D5404280464FF0FF305645F7
:104F700001DA012100E0014601914D4500DA0120EE
:104F8000A7EB0804C8F1000B0090294630460B9AA5
:104F900000F09EF9564501D14D450CD060005845B2
:104FA00003DD0199A4EB08040E44B842EDDA009841
:104FB0003C440544E9E7BDE8FC8F00008000002088
:104FC00008B50B4600920246024803C8FFF7BCFF33
:104FD00008BD0000800000202DE9FF4F83B082460D
:104FE0001C461046DDF844B0FEF7DAFE0546007BAD
:104FF000201AC6B26868410700D0012101EBE00029
:10500000297A00F0FF0801FB08F1CCB2204602F03B
:10501000C9F80090286916FB04002246009902F0A6
:10502000AFFD00264FF08009009F1BE0049800248C
:105030003044019011E007EBE40104F007030A7823
:1050400029FA03F10AEB04000A4201D05A4600E0B3
:10505000109A019900F03CF9641C6868A042EADCEF
:105060004744761CA868B042E0DC009807B0BDE871
:10507000F04F04F0EBBF00002DE9FF4F81B08046F8
:10508000110AD0B2DDF838A09946A1283BD3A12956
:1050900039D3A138C0B2A139C0EB0012C9B202EBBA
:1050A000401001EB40004401202002F07BF8014653
:1050B000009016482022204402F062FD0025009E48
:1050C00080270298002400EB050B06EBE40104F0B6
:1050D0000702097827FA02F208EB0400114201D016
:1050E000524600E04A46594600F0F2F8641C102C83
:1050F000EBDB6D1CB61C102DE3DB009805B0BDE8A2
:10510000F04F04F0A3BF05B0BDE8F08F0000040825
:105110002DE9FC479A4617460E4681461578044607
:10512000DDF8288029E02B4617F8015F0D2B0CD005
:105130000A2B0CD0802B0CD8CDE900A80322F11C3F
:105140002046FFF749FF0A3413E04C4615E01036BD
:1051500013E0A12B0DD9A12D0BD943EA052253460B
:1051600031462046CDF80080FFF786FF17F8015F33
:105170001034B02C01DD0024E9E7002DD3D1BDE8C7
:10518000FC8700002DE9F0438BB08846DDE912541E
:1051900081461F461646202102A8FBF7E1FB3A464E
:1051A00008A102A8FBF7FEF8002807DBCDE90054B0
:1051B00002AB32464146484600F006F80BB0BDE867
:1051C000F0830000256400002DE9FC5F8046DDE9E6
:1051D0000CA904461E4693460D461046FEF7E0FD18
:1051E000074614E0761C0D2816D00A2816D0CDE903
:1051F00000A9C3B25A4629462046FFF7EDFE78685B
:105200000444C0F1C001A14201DA00240544307811
:105210000028E7D1BDE8FC9F4446F8E7B868F5E709
:105220002DE9F8410446DDE907501F461646884639
:10523000F8B1B44205D120460095FFF785FEBDE8E0
:10524000F88108DB12E022463B46414610460095B5
:10525000FFF77AFE641CB442F5DDF0E732463B46C8
:10526000414610460095FFF76FFE761CA642F5DD1D
:10527000E5E70B4620460095FFF766FE2A463946CD
:105280003046FFF79DFE2A4639462046FFF798FE36
:105290002A4641462046BDE8F841FFF791BE00008E
:1052A0000A49002248B10123012809D002280AD066
:1052B000032801D18B60CB6070478A60CA60704759
:1052C000C1E902327047C1E9022370478000002023
:1052D000154B10B59C680CB1C0F1BF00DC680CB177
:1052E000C1F13F01C028C3E900011BD2002919DB2D
:1052F000402917DA01F007040123A340002A4FEAEE
:10530000E17201EB5271094C4FEAE10101EB4101FD
:1053100004EB81110844DBB2017801D0194300E0AD
:105320009943017010BD000080000020E00A0020B9
:10533000002070477CB50020FFF7CEFD002501243A
:105340003523A6220B211920CDE90045FFF768FF80
:105350003323A4220D211B20CDE90045FFF760FF78
:10536000002310A210211E200094FFF7D1FE00237D
:1053700010A220211E200094FFF7CAFE002002F098
:105380002DFF0020FEF792FE0020FEF7C7FB022152
:10539000002001F0B3FF02F0C9F9B42002F046F991
:1053A00000207CBDC3DCC2EBCAE4B4EDCCABB6E0FC
:1053B00000000000C7EBB5C8B4FD33B7D6D6D300A4
:1053C00070B586B000220B0AC8B200920192029218
:1053D00003920492A52B0BD1214C0A280BD008284C
:1053E00029D03138032803D8C0B22070FDF7C7FD9B
:1053F00006B0002070BD1A4D20786D1C01262B5C74
:1054000006FA00F14BB1012B0CD02A54E2688A4312
:10541000E260295C00F0F4F8EAE72E54A268114338
:10542000A160F6E702222A54E2680A43E260A26819
:105430008A43A260EDE70920ADF80400A06802905D
:10544000E0684FF47A740390214601A8FFF7B6F89C
:10545000AB20ADF8000021466846FCF7F9FEC7E72F
:10546000900400202DE9FC41FDF788FFDFF85C8106
:105470004546C8F80800FDF775FFE86054A00090A5
:1054800055A357A258A15AA0FDF7C8FC0124002338
:105490005AA2022114200094FFF73AFE287B4FF015
:1054A0000207C0074FF0000608F1010509D000947B
:1054B00022234E221C2148200194FFF7B1FE2F70B9
:1054C00015E098F80800C00708D0002303221C212B
:1054D00048200094FFF70CFD2C7008E0CDE9004651
:1054E00022234E221C214820FFF79AFE2E7098F8A6
:1054F0000C00800709D5009437234E223121482023
:105500000194FFF78DFE6F7015E098F80800800792
:1055100008D500230322312148200094FFF7E8FC3E
:105520006C7008E0CDE9004637234E223121482037
:10553000FFF776FE6E7098F80C00400709D50094CE
:105540002223AE221C21A8200194FFF769FEAF7030
:1055500015E098F80800400708D5002303221C2115
:10556000A8200094FFF7C4FCAC7008E0CDE9004629
:105570002223AE221C21A820FFF752FEAE7098F81D
:105580000C10090709D500943723AE223121A82039
:105590000194FFF745FEEF7015E098F8080000074A
:1055A00008D5002303223121A8200094FFF7A0FC96
:1055B000EC7008E0CDE900463723AE223121A82067
:1055C000FFF72EFEEE700020BDE8FC819004002065
:1055D000C8CBC1B300000000D6B8BEB2C2F600000E
:1055E000D6B8CEC600000000C3DCC2EB000000004D
:1055F000BFAACBF8C4A3CABD00000000312F310000
:105600001CB50023012280B1012823D0022836D006
:10561000032816D1022944D0012945D0CDE9003212
:105620003623AD223221A92009E002290AD001291E
:105630000BD0CDE9003221234D221D214920FFF757
:10564000EFFD1CBD00920192F5E7009200230322BA
:105650001C2110E0022907D0012908D0CDE9003231
:1056600036234D223221E9E700920192F8E70092B9
:105670000023032231214820FFF73AFC1CBD0229F8
:1056800007D0012908D0CDE900322123AD221D2108
:10569000C9E700920192F8E70092002303221C213F
:1056A00006E000920192BBE7009200230322312121
:1056B000A820E1E71CB54FF44070FBF73FFEA8209F
:1056C000FDF7E6FDFEF71AFF04F00EFD0749032083
:1056D000CDE9000100234FF4807205A1074806F0D0
:1056E000DBF804F025FF00201CBD000000000020B6
:1056F00073746172745F7461736B0000817A000867
:1057000008B500200090AB20ADF800004FF47A718E
:105710006846FCF79DFD08BDF0B587B04FF000046A
:10572000080ACDB20294039404944FF00101059449
:1057300007D006264FF47A7701280BD0FF2822D114
:1057400013E0CDE900413A2358222D214920FFF7EB
:1057500067FD18E0002300911A462D214920FFF72C
:10576000C7FBADF80860039509E000910023012212
:105770002D214920FFF7BCFBADF8086003943946A2
:1057800002A8FEF71BFF07B00020F0BDF0B587B000
:105790004FF00004080ACDB20294039404944FF031
:1057A0000101059407D004264FF47A7701280BD025
:1057B000FF2822D113E0CDE9004110235822032114
:1057C0004920FFF72DFD18E0002300911A46032120
:1057D0004920FFF78DFBADF80860039509E00091C3
:1057E0000023012203214920FFF782FBADF8086066
:1057F0000394394602A8FEF7E1FE07B00020F0BD91
:105800002DE9FC4101F02AFE044601F00FFE0A27B3
:10581000B4FBF7F301264FF00008CDE900860546FA
:10582000642C01D37D2000E0822000220621FFF7B6
:10583000A9FCB4FBF7F007FB1043CDE90086444612
:10584000002206218C20FFF79DFC05F0E1F80021E5
:1058500001F0FCFF00F0E4FD002101F085FFCDE93F
:1058600000460F23BC220421B720FFF7D9FCC5F165
:10587000640000EB40008000642190FBF1F1009691
:105880001023BC22B720091D0196FFF7C9FCBDE813
:10589000FC811CB5080A00210191012802D00528CD
:1058A00019D110E00420ADF804004FF47A7101A87A
:1058B00004F0E6FE01200090002302221821492076
:1058C000FFF716FB07E0FDF76DFDC00703D00321CE
:1058D000012001F013FD00201CBD00002DE9F04364
:1058E0008BB000250E0ACCB207950895374809956C
:1058F000FAF72BFFC0B2029503950495059506951E
:10590000A52E03D00BB00020BDE8F0832F4F304E02
:105910004FF47A794FF001080A2C0BD0082C1DD0D7
:105920002A2C22D0A4F13001092932D8082836D2F5
:105930003C5434E068B17078022800D00320ADF800
:105940000C00224904A8FAF7DCFE494603A8FEF73A
:1059500035FE75703D607D603D7220E018B13844C1
:1059600000F8015C1BE0757019E00221012001F0D4
:10597000C5FC0120FEF7D2F86420FDF7A5FC052048
:10598000ADF80800ADF80A80494602A8FEF7DAF83B
:1059900005E0232C03D110B97078401C70702022D0
:1059A000082107A8FAF7B2FF0848FAF7CEFE014629
:1059B0002A2207A8FAF7AAFFCDE9005807AB03226D
:1059C0002F216A20FFF700FC9CE7000038600120CF
:1059D0001802002008B5080A012804D10020009010
:1059E000684600F027FD002008BD00002DE9F047C3
:1059F00088B04FF00004080ACEB2029403940494D5
:105A000005944FF0010506940CD0DFF8ACA04FF0E0
:105A1000AA084FF47A79AAF10C0701280BD0FF28C5
:105A200046D126E02523B9221821AA20CDE9004538
:105A3000FFF7F6FB3CE000231A461821AA20009548
:105A4000FFF756FA012E12D18AF80050ADF80880FF
:105A50004E46494602A8FCF7FBFB0121084601F02F
:105A60004DFCADF80C50314603A8FEF7A7FD3C7085
:105A70001EE0002301221821AA200095FFF738FA22
:105A80003878052804D2401CC0B2387005280FD3DE
:105A900002218AF80010ADF808804C46494602A859
:105AA000FCF7D6FBADF80C50214603A8FEF786FDA7
:105AB00008B00020BDE8F0872402002070B586B051
:105AC0000024080A364E0125C9B2029403940494B6
:105AD0000594012804D002282ED003285CD13EE092
